{
	"contracts/8_Demo5.sol": {
		"Demo5": {
			"abi": [
				{
					"inputs": [],
					"name": "currentCourse",
					"outputs": [
						{
							"internalType": "string",
							"name": "id",
							"type": "string"
						},
						{
							"internalType": "string",
							"name": "name",
							"type": "string"
						},
						{
							"internalType": "uint8",
							"name": "duration",
							"type": "uint8"
						}
					],
					"stateMutability": "view",
					"type": "function"
				},
				{
					"inputs": [],
					"name": "getCourse",
					"outputs": [
						{
							"components": [
								{
									"internalType": "string",
									"name": "id",
									"type": "string"
								},
								{
									"internalType": "string",
									"name": "name",
									"type": "string"
								},
								{
									"internalType": "uint8",
									"name": "duration",
									"type": "uint8"
								}
							],
							"internalType": "struct Demo5.Course",
							"name": "",
							"type": "tuple"
						}
					],
					"stateMutability": "view",
					"type": "function"
				},
				{
					"inputs": [],
					"name": "getCourseId",
					"outputs": [
						{
							"internalType": "string",
							"name": "",
							"type": "string"
						}
					],
					"stateMutability": "view",
					"type": "function"
				},
				{
					"inputs": [],
					"name": "setCurrentCourse",
					"outputs": [],
					"stateMutability": "nonpayable",
					"type": "function"
				},
				{
					"inputs": [
						{
							"components": [
								{
									"internalType": "string",
									"name": "id",
									"type": "string"
								},
								{
									"internalType": "string",
									"name": "name",
									"type": "string"
								},
								{
									"internalType": "uint8",
									"name": "duration",
									"type": "uint8"
								}
							],
							"internalType": "struct Demo5.Course",
							"name": "c",
							"type": "tuple"
						}
					],
					"name": "setCurrentCourse2",
					"outputs": [],
					"stateMutability": "nonpayable",
					"type": "function"
				},
				{
					"inputs": [
						{
							"internalType": "string",
							"name": "id",
							"type": "string"
						},
						{
							"internalType": "string",
							"name": "name",
							"type": "string"
						},
						{
							"internalType": "uint8",
							"name": "duration",
							"type": "uint8"
						}
					],
					"name": "setCurrentCourse3",
					"outputs": [],
					"stateMutability": "nonpayable",
					"type": "function"
				}
			],
			"devdoc": {
				"kind": "dev",
				"methods": {},
				"version": 1
			},
			"evm": {
				"assembly": "    /* \"contracts/8_Demo5.sol\":80:864  contract Demo5 {... */\n  mstore(0x40, 0x80)\n  callvalue\n  dup1\n  iszero\n  tag_1\n  jumpi\n  0x00\n  dup1\n  revert\ntag_1:\n  pop\n  dataSize(sub_0)\n  dup1\n  dataOffset(sub_0)\n  0x00\n  codecopy\n  0x00\n  return\nstop\n\nsub_0: assembly {\n        /* \"contracts/8_Demo5.sol\":80:864  contract Demo5 {... */\n      mstore(0x40, 0x80)\n      callvalue\n      dup1\n      iszero\n      tag_1\n      jumpi\n      0x00\n      dup1\n      revert\n    tag_1:\n      pop\n      jumpi(tag_2, lt(calldatasize, 0x04))\n      shr(0xe0, calldataload(0x00))\n      dup1\n      0x50808e8b\n      eq\n      tag_3\n      jumpi\n      dup1\n      0x71cdd53c\n      eq\n      tag_4\n      jumpi\n      dup1\n      0x89ab0958\n      eq\n      tag_5\n      jumpi\n      dup1\n      0x8c14acd5\n      eq\n      tag_6\n      jumpi\n      dup1\n      0x97df9d3f\n      eq\n      tag_7\n      jumpi\n      dup1\n      0xa9f921ab\n      eq\n      tag_8\n      jumpi\n    tag_2:\n      0x00\n      dup1\n      revert\n        /* \"contracts/8_Demo5.sol\":663:762  function getCourseId() public view returns (string memory) {... */\n    tag_3:\n      tag_9\n      tag_10\n      jump\t// in\n    tag_9:\n      mload(0x40)\n      tag_11\n      swap2\n      swap1\n      tag_12\n      jump\t// in\n    tag_11:\n      mload(0x40)\n      dup1\n      swap2\n      sub\n      swap1\n      return\n        /* \"contracts/8_Demo5.sol\":226:326  function setCurrentCourse() public {... */\n    tag_4:\n      tag_13\n      tag_14\n      jump\t// in\n    tag_13:\n      stop\n        /* \"contracts/8_Demo5.sol\":332:417  function setCurrentCourse2(Course memory c) public {... */\n    tag_5:\n      tag_15\n      0x04\n      dup1\n      calldatasize\n      sub\n      dup2\n      add\n      swap1\n      tag_16\n      swap2\n      swap1\n      tag_17\n      jump\t// in\n    tag_16:\n      tag_18\n      jump\t// in\n    tag_15:\n      stop\n        /* \"contracts/8_Demo5.sol\":768:862  function getCourse() public view returns (Course memory) {... */\n    tag_6:\n      tag_19\n      tag_20\n      jump\t// in\n    tag_19:\n      mload(0x40)\n      tag_21\n      swap2\n      swap1\n      tag_22\n      jump\t// in\n    tag_21:\n      mload(0x40)\n      dup1\n      swap2\n      sub\n      swap1\n      return\n        /* \"contracts/8_Demo5.sol\":192:219  Course public currentCourse */\n    tag_7:\n      tag_23\n      tag_24\n      jump\t// in\n    tag_23:\n      mload(0x40)\n      tag_25\n      swap4\n      swap3\n      swap2\n      swap1\n      tag_26\n      jump\t// in\n    tag_25:\n      mload(0x40)\n      dup1\n      swap2\n      sub\n      swap1\n      return\n        /* \"contracts/8_Demo5.sol\":423:657  function setCurrentCourse3(... */\n    tag_8:\n      tag_27\n      0x04\n      dup1\n      calldatasize\n      sub\n      dup2\n      add\n      swap1\n      tag_28\n      swap2\n      swap1\n      tag_29\n      jump\t// in\n    tag_28:\n      tag_30\n      jump\t// in\n    tag_27:\n      stop\n        /* \"contracts/8_Demo5.sol\":663:762  function getCourseId() public view returns (string memory) {... */\n    tag_10:\n        /* \"contracts/8_Demo5.sol\":707:720  string memory */\n      0x60\n        /* \"contracts/8_Demo5.sol\":739:752  currentCourse */\n      0x00\n        /* \"contracts/8_Demo5.sol\":739:755  currentCourse.id */\n      dup1\n      add\n        /* \"contracts/8_Demo5.sol\":732:755  return currentCourse.id */\n      dup1\n      sload\n      0x01\n      dup2\n      0x01\n      and\n      iszero\n      0x0100\n      mul\n      sub\n      and\n      0x02\n      swap1\n      div\n      dup1\n      0x1f\n      add\n      0x20\n      dup1\n      swap2\n      div\n      mul\n      0x20\n      add\n      mload(0x40)\n      swap1\n      dup2\n      add\n      0x40\n      mstore\n      dup1\n      swap3\n      swap2\n      swap1\n      dup2\n      dup2\n      mstore\n      0x20\n      add\n      dup3\n      dup1\n      sload\n      0x01\n      dup2\n      0x01\n      and\n      iszero\n      0x0100\n      mul\n      sub\n      and\n      0x02\n      swap1\n      div\n      dup1\n      iszero\n      tag_32\n      jumpi\n      dup1\n      0x1f\n      lt\n      tag_33\n      jumpi\n      0x0100\n      dup1\n      dup4\n      sload\n      div\n      mul\n      dup4\n      mstore\n      swap2\n      0x20\n      add\n      swap2\n      jump(tag_32)\n    tag_33:\n      dup3\n      add\n      swap2\n      swap1\n      0x00\n      mstore\n      keccak256(0x00, 0x20)\n      swap1\n    tag_34:\n      dup2\n      sload\n      dup2\n      mstore\n      swap1\n      0x01\n      add\n      swap1\n      0x20\n      add\n      dup1\n      dup4\n      gt\n      tag_34\n      jumpi\n      dup3\n      swap1\n      sub\n      0x1f\n      and\n      dup3\n      add\n      swap2\n    tag_32:\n      pop\n      pop\n      pop\n      pop\n      pop\n      swap1\n      pop\n        /* \"contracts/8_Demo5.sol\":663:762  function getCourseId() public view returns (string memory) {... */\n      swap1\n      jump\t// out\n        /* \"contracts/8_Demo5.sol\":226:326  function setCurrentCourse() public {... */\n    tag_14:\n        /* \"contracts/8_Demo5.sol\":287:319  Course(\"POOP\", \"Python OOP\", 35) */\n      mload(0x40)\n      dup1\n      0x60\n      add\n      0x40\n      mstore\n      dup1\n      mload(0x40)\n      dup1\n      0x40\n      add\n      0x40\n      mstore\n      dup1\n      0x04\n      dup2\n      mstore\n      0x20\n      add\n      0x504f4f5000000000000000000000000000000000000000000000000000000000\n      dup2\n      mstore\n      pop\n      dup2\n      mstore\n      0x20\n      add\n      mload(0x40)\n      dup1\n      0x40\n      add\n      0x40\n      mstore\n      dup1\n      0x0a\n      dup2\n      mstore\n      0x20\n      add\n      0x507974686f6e204f4f5000000000000000000000000000000000000000000000\n      dup2\n      mstore\n      pop\n      dup2\n      mstore\n      0x20\n      add\n        /* \"contracts/8_Demo5.sol\":316:318  35 */\n      0x23\n        /* \"contracts/8_Demo5.sol\":287:319  Course(\"POOP\", \"Python OOP\", 35) */\n      0xff\n      and\n      dup2\n      mstore\n      pop\n        /* \"contracts/8_Demo5.sol\":271:284  currentCourse */\n      0x00\n        /* \"contracts/8_Demo5.sol\":271:319  currentCourse = Course(\"POOP\", \"Python OOP\", 35) */\n      dup1\n      dup3\n      add\n      mload\n      dup2\n      0x00\n      add\n      swap1\n      dup1\n      mload\n      swap1\n      0x20\n      add\n      swap1\n      tag_36\n      swap3\n      swap2\n      swap1\n      tag_37\n      jump\t// in\n    tag_36:\n      pop\n      0x20\n      dup3\n      add\n      mload\n      dup2\n      0x01\n      add\n      swap1\n      dup1\n      mload\n      swap1\n      0x20\n      add\n      swap1\n      tag_38\n      swap3\n      swap2\n      swap1\n      tag_37\n      jump\t// in\n    tag_38:\n      pop\n      0x40\n      dup3\n      add\n      mload\n      dup2\n      0x02\n      add\n      exp(0x0100, 0x00)\n      dup2\n      sload\n      dup2\n      0xff\n      mul\n      not\n      and\n      swap1\n      dup4\n      0xff\n      and\n      mul\n      or\n      swap1\n      sstore\n      pop\n      swap1\n      pop\n      pop\n        /* \"contracts/8_Demo5.sol\":226:326  function setCurrentCourse() public {... */\n      jump\t// out\n        /* \"contracts/8_Demo5.sol\":332:417  function setCurrentCourse2(Course memory c) public {... */\n    tag_18:\n        /* \"contracts/8_Demo5.sol\":409:410  c */\n      dup1\n        /* \"contracts/8_Demo5.sol\":393:406  currentCourse */\n      0x00\n        /* \"contracts/8_Demo5.sol\":393:410  currentCourse = c */\n      dup1\n      dup3\n      add\n      mload\n      dup2\n      0x00\n      add\n      swap1\n      dup1\n      mload\n      swap1\n      0x20\n      add\n      swap1\n      tag_40\n      swap3\n      swap2\n      swap1\n      tag_37\n      jump\t// in\n    tag_40:\n      pop\n      0x20\n      dup3\n      add\n      mload\n      dup2\n      0x01\n      add\n      swap1\n      dup1\n      mload\n      swap1\n      0x20\n      add\n      swap1\n      tag_41\n      swap3\n      swap2\n      swap1\n      tag_37\n      jump\t// in\n    tag_41:\n      pop\n      0x40\n      dup3\n      add\n      mload\n      dup2\n      0x02\n      add\n      exp(0x0100, 0x00)\n      dup2\n      sload\n      dup2\n      0xff\n      mul\n      not\n      and\n      swap1\n      dup4\n      0xff\n      and\n      mul\n      or\n      swap1\n      sstore\n      pop\n      swap1\n      pop\n      pop\n        /* \"contracts/8_Demo5.sol\":332:417  function setCurrentCourse2(Course memory c) public {... */\n      pop\n      jump\t// out\n        /* \"contracts/8_Demo5.sol\":768:862  function getCourse() public view returns (Course memory) {... */\n    tag_20:\n        /* \"contracts/8_Demo5.sol\":810:823  Course memory */\n      tag_42\n      tag_43\n      jump\t// in\n    tag_42:\n        /* \"contracts/8_Demo5.sol\":842:855  currentCourse */\n      0x00\n        /* \"contracts/8_Demo5.sol\":835:855  return currentCourse */\n      mload(0x40)\n      dup1\n      0x60\n      add\n      0x40\n      mstore\n      swap1\n      dup2\n      0x00\n      dup3\n      add\n      dup1\n      sload\n      0x01\n      dup2\n      0x01\n      and\n      iszero\n      0x0100\n      mul\n      sub\n      and\n      0x02\n      swap1\n      div\n      dup1\n      0x1f\n      add\n      0x20\n      dup1\n      swap2\n      div\n      mul\n      0x20\n      add\n      mload(0x40)\n      swap1\n      dup2\n      add\n      0x40\n      mstore\n      dup1\n      swap3\n      swap2\n      swap1\n      dup2\n      dup2\n      mstore\n      0x20\n      add\n      dup3\n      dup1\n      sload\n      0x01\n      dup2\n      0x01\n      and\n      iszero\n      0x0100\n      mul\n      sub\n      and\n      0x02\n      swap1\n      div\n      dup1\n      iszero\n      tag_45\n      jumpi\n      dup1\n      0x1f\n      lt\n      tag_46\n      jumpi\n      0x0100\n      dup1\n      dup4\n      sload\n      div\n      mul\n      dup4\n      mstore\n      swap2\n      0x20\n      add\n      swap2\n      jump(tag_45)\n    tag_46:\n      dup3\n      add\n      swap2\n      swap1\n      0x00\n      mstore\n      keccak256(0x00, 0x20)\n      swap1\n    tag_47:\n      dup2\n      sload\n      dup2\n      mstore\n      swap1\n      0x01\n      add\n      swap1\n      0x20\n      add\n      dup1\n      dup4\n      gt\n      tag_47\n      jumpi\n      dup3\n      swap1\n      sub\n      0x1f\n      and\n      dup3\n      add\n      swap2\n    tag_45:\n      pop\n      pop\n      pop\n      pop\n      pop\n      dup2\n      mstore\n      0x20\n      add\n      0x01\n      dup3\n      add\n      dup1\n      sload\n      0x01\n      dup2\n      0x01\n      and\n      iszero\n      0x0100\n      mul\n      sub\n      and\n      0x02\n      swap1\n      div\n      dup1\n      0x1f\n      add\n      0x20\n      dup1\n      swap2\n      div\n      mul\n      0x20\n      add\n      mload(0x40)\n      swap1\n      dup2\n      add\n      0x40\n      mstore\n      dup1\n      swap3\n      swap2\n      swap1\n      dup2\n      dup2\n      mstore\n      0x20\n      add\n      dup3\n      dup1\n      sload\n      0x01\n      dup2\n      0x01\n      and\n      iszero\n      0x0100\n      mul\n      sub\n      and\n      0x02\n      swap1\n      div\n      dup1\n      iszero\n      tag_48\n      jumpi\n      dup1\n      0x1f\n      lt\n      tag_49\n      jumpi\n      0x0100\n      dup1\n      dup4\n      sload\n      div\n      mul\n      dup4\n      mstore\n      swap2\n      0x20\n      add\n      swap2\n      jump(tag_48)\n    tag_49:\n      dup3\n      add\n      swap2\n      swap1\n      0x00\n      mstore\n      keccak256(0x00, 0x20)\n      swap1\n    tag_50:\n      dup2\n      sload\n      dup2\n      mstore\n      swap1\n      0x01\n      add\n      swap1\n      0x20\n      add\n      dup1\n      dup4\n      gt\n      tag_50\n      jumpi\n      dup3\n      swap1\n      sub\n      0x1f\n      and\n      dup3\n      add\n      swap2\n    tag_48:\n      pop\n      pop\n      pop\n      pop\n      pop\n      dup2\n      mstore\n      0x20\n      add\n      0x02\n      dup3\n      add\n      0x00\n      swap1\n      sload\n      swap1\n      0x0100\n      exp\n      swap1\n      div\n      0xff\n      and\n      0xff\n      and\n      0xff\n      and\n      dup2\n      mstore\n      pop\n      pop\n      swap1\n      pop\n        /* \"contracts/8_Demo5.sol\":768:862  function getCourse() public view returns (Course memory) {... */\n      swap1\n      jump\t// out\n        /* \"contracts/8_Demo5.sol\":192:219  Course public currentCourse */\n    tag_24:\n      0x00\n      dup1\n      0x00\n      add\n      dup1\n      sload\n      0x01\n      dup2\n      0x01\n      and\n      iszero\n      0x0100\n      mul\n      sub\n      and\n      0x02\n      swap1\n      div\n      dup1\n      0x1f\n      add\n      0x20\n      dup1\n      swap2\n      div\n      mul\n      0x20\n      add\n      mload(0x40)\n      swap1\n      dup2\n      add\n      0x40\n      mstore\n      dup1\n      swap3\n      swap2\n      swap1\n      dup2\n      dup2\n      mstore\n      0x20\n      add\n      dup3\n      dup1\n      sload\n      0x01\n      dup2\n      0x01\n      and\n      iszero\n      0x0100\n      mul\n      sub\n      and\n      0x02\n      swap1\n      div\n      dup1\n      iszero\n      tag_51\n      jumpi\n      dup1\n      0x1f\n      lt\n      tag_52\n      jumpi\n      0x0100\n      dup1\n      dup4\n      sload\n      div\n      mul\n      dup4\n      mstore\n      swap2\n      0x20\n      add\n      swap2\n      jump(tag_51)\n    tag_52:\n      dup3\n      add\n      swap2\n      swap1\n      0x00\n      mstore\n      keccak256(0x00, 0x20)\n      swap1\n    tag_53:\n      dup2\n      sload\n      dup2\n      mstore\n      swap1\n      0x01\n      add\n      swap1\n      0x20\n      add\n      dup1\n      dup4\n      gt\n      tag_53\n      jumpi\n      dup3\n      swap1\n      sub\n      0x1f\n      and\n      dup3\n      add\n      swap2\n    tag_51:\n      pop\n      pop\n      pop\n      pop\n      pop\n      swap1\n      dup1\n      0x01\n      add\n      dup1\n      sload\n      0x01\n      dup2\n      0x01\n      and\n      iszero\n      0x0100\n      mul\n      sub\n      and\n      0x02\n      swap1\n      div\n      dup1\n      0x1f\n      add\n      0x20\n      dup1\n      swap2\n      div\n      mul\n      0x20\n      add\n      mload(0x40)\n      swap1\n      dup2\n      add\n      0x40\n      mstore\n      dup1\n      swap3\n      swap2\n      swap1\n      dup2\n      dup2\n      mstore\n      0x20\n      add\n      dup3\n      dup1\n      sload\n      0x01\n      dup2\n      0x01\n      and\n      iszero\n      0x0100\n      mul\n      sub\n      and\n      0x02\n      swap1\n      div\n      dup1\n      iszero\n      tag_54\n      jumpi\n      dup1\n      0x1f\n      lt\n      tag_55\n      jumpi\n      0x0100\n      dup1\n      dup4\n      sload\n      div\n      mul\n      dup4\n      mstore\n      swap2\n      0x20\n      add\n      swap2\n      jump(tag_54)\n    tag_55:\n      dup3\n      add\n      swap2\n      swap1\n      0x00\n      mstore\n      keccak256(0x00, 0x20)\n      swap1\n    tag_56:\n      dup2\n      sload\n      dup2\n      mstore\n      swap1\n      0x01\n      add\n      swap1\n      0x20\n      add\n      dup1\n      dup4\n      gt\n      tag_56\n      jumpi\n      dup3\n      swap1\n      sub\n      0x1f\n      and\n      dup3\n      add\n      swap2\n    tag_54:\n      pop\n      pop\n      pop\n      pop\n      pop\n      swap1\n      dup1\n      0x02\n      add\n      0x00\n      swap1\n      sload\n      swap1\n      0x0100\n      exp\n      swap1\n      div\n      0xff\n      and\n      swap1\n      pop\n      dup4\n      jump\t// out\n        /* \"contracts/8_Demo5.sol\":423:657  function setCurrentCourse3(... */\n    tag_30:\n        /* \"contracts/8_Demo5.sol\":570:572  id */\n      dup3\n        /* \"contracts/8_Demo5.sol\":551:564  currentCourse */\n      0x00\n        /* \"contracts/8_Demo5.sol\":551:567  currentCourse.id */\n      dup1\n      add\n        /* \"contracts/8_Demo5.sol\":551:572  currentCourse.id = id */\n      swap1\n      dup1\n      mload\n      swap1\n      0x20\n      add\n      swap1\n      tag_58\n      swap3\n      swap2\n      swap1\n      tag_37\n      jump\t// in\n    tag_58:\n      pop\n        /* \"contracts/8_Demo5.sol\":603:607  name */\n      dup2\n        /* \"contracts/8_Demo5.sol\":582:595  currentCourse */\n      0x00\n        /* \"contracts/8_Demo5.sol\":582:600  currentCourse.name */\n      0x01\n      add\n        /* \"contracts/8_Demo5.sol\":582:607  currentCourse.name = name */\n      swap1\n      dup1\n      mload\n      swap1\n      0x20\n      add\n      swap1\n      tag_59\n      swap3\n      swap2\n      swap1\n      tag_37\n      jump\t// in\n    tag_59:\n      pop\n        /* \"contracts/8_Demo5.sol\":642:650  duration */\n      dup1\n        /* \"contracts/8_Demo5.sol\":617:630  currentCourse */\n      0x00\n        /* \"contracts/8_Demo5.sol\":617:639  currentCourse.duration */\n      0x02\n      add\n      0x00\n        /* \"contracts/8_Demo5.sol\":617:650  currentCourse.duration = duration */\n      0x0100\n      exp\n      dup2\n      sload\n      dup2\n      0xff\n      mul\n      not\n      and\n      swap1\n      dup4\n      0xff\n      and\n      mul\n      or\n      swap1\n      sstore\n      pop\n        /* \"contracts/8_Demo5.sol\":423:657  function setCurrentCourse3(... */\n      pop\n      pop\n      pop\n      jump\t// out\n    tag_37:\n      dup3\n      dup1\n      sload\n      0x01\n      dup2\n      0x01\n      and\n      iszero\n      0x0100\n      mul\n      sub\n      and\n      0x02\n      swap1\n      div\n      swap1\n      0x00\n      mstore\n      keccak256(0x00, 0x20)\n      swap1\n      0x1f\n      add\n      0x20\n      swap1\n      div\n      dup2\n      add\n      swap3\n      dup3\n      tag_61\n      jumpi\n      0x00\n      dup6\n      sstore\n      jump(tag_60)\n    tag_61:\n      dup3\n      0x1f\n      lt\n      tag_62\n      jumpi\n      dup1\n      mload\n      not(0xff)\n      and\n      dup4\n      dup1\n      add\n      or\n      dup6\n      sstore\n      jump(tag_60)\n    tag_62:\n      dup3\n      dup1\n      add\n      0x01\n      add\n      dup6\n      sstore\n      dup3\n      iszero\n      tag_60\n      jumpi\n      swap2\n      dup3\n      add\n    tag_63:\n      dup3\n      dup2\n      gt\n      iszero\n      tag_64\n      jumpi\n      dup3\n      mload\n      dup3\n      sstore\n      swap2\n      0x20\n      add\n      swap2\n      swap1\n      0x01\n      add\n      swap1\n      jump(tag_63)\n    tag_64:\n    tag_60:\n      pop\n      swap1\n      pop\n      tag_65\n      swap2\n      swap1\n      tag_66\n      jump\t// in\n    tag_65:\n      pop\n      swap1\n      jump\t// out\n    tag_43:\n      mload(0x40)\n      dup1\n      0x60\n      add\n      0x40\n      mstore\n      dup1\n      0x60\n      dup2\n      mstore\n      0x20\n      add\n      0x60\n      dup2\n      mstore\n      0x20\n      add\n      and(0xff, 0x00)\n      dup2\n      mstore\n      pop\n      swap1\n      jump\t// out\n    tag_66:\n    tag_67:\n      dup1\n      dup3\n      gt\n      iszero\n      tag_68\n      jumpi\n      0x00\n      dup2\n      0x00\n      swap1\n      sstore\n      pop\n      0x01\n      add\n      jump(tag_67)\n    tag_68:\n      pop\n      swap1\n      jump\t// out\n        /* \"#utility.yul\":7:351   */\n    tag_70:\n      0x00\n        /* \"#utility.yul\":110:175   */\n      tag_72\n        /* \"#utility.yul\":125:174   */\n      tag_73\n        /* \"#utility.yul\":167:173   */\n      dup5\n        /* \"#utility.yul\":125:174   */\n      tag_74\n      jump\t// in\n    tag_73:\n        /* \"#utility.yul\":110:175   */\n      tag_75\n      jump\t// in\n    tag_72:\n        /* \"#utility.yul\":101:175   */\n      swap1\n      pop\n        /* \"#utility.yul\":198:204   */\n      dup3\n        /* \"#utility.yul\":191:196   */\n      dup2\n        /* \"#utility.yul\":184:205   */\n      mstore\n        /* \"#utility.yul\":236:240   */\n      0x20\n        /* \"#utility.yul\":229:234   */\n      dup2\n        /* \"#utility.yul\":225:241   */\n      add\n        /* \"#utility.yul\":274:277   */\n      dup5\n        /* \"#utility.yul\":265:271   */\n      dup5\n        /* \"#utility.yul\":260:263   */\n      dup5\n        /* \"#utility.yul\":256:272   */\n      add\n        /* \"#utility.yul\":253:278   */\n      gt\n        /* \"#utility.yul\":250:252   */\n      iszero\n      tag_76\n      jumpi\n        /* \"#utility.yul\":291:292   */\n      0x00\n        /* \"#utility.yul\":288:289   */\n      dup1\n        /* \"#utility.yul\":281:293   */\n      revert\n        /* \"#utility.yul\":250:252   */\n    tag_76:\n        /* \"#utility.yul\":304:345   */\n      tag_77\n        /* \"#utility.yul\":338:344   */\n      dup5\n        /* \"#utility.yul\":333:336   */\n      dup3\n        /* \"#utility.yul\":328:331   */\n      dup6\n        /* \"#utility.yul\":304:345   */\n      tag_78\n      jump\t// in\n    tag_77:\n        /* \"#utility.yul\":91:351   */\n      pop\n      swap4\n      swap3\n      pop\n      pop\n      pop\n      jump\t// out\n        /* \"#utility.yul\":371:644   */\n    tag_79:\n      0x00\n        /* \"#utility.yul\":476:479   */\n      dup3\n        /* \"#utility.yul\":469:473   */\n      0x1f\n        /* \"#utility.yul\":461:467   */\n      dup4\n        /* \"#utility.yul\":457:474   */\n      add\n        /* \"#utility.yul\":453:480   */\n      slt\n        /* \"#utility.yul\":443:445   */\n      tag_81\n      jumpi\n        /* \"#utility.yul\":494:495   */\n      0x00\n        /* \"#utility.yul\":491:492   */\n      dup1\n        /* \"#utility.yul\":484:496   */\n      revert\n        /* \"#utility.yul\":443:445   */\n    tag_81:\n        /* \"#utility.yul\":534:540   */\n      dup2\n        /* \"#utility.yul\":521:541   */\n      calldataload\n        /* \"#utility.yul\":559:638   */\n      tag_82\n        /* \"#utility.yul\":634:637   */\n      dup5\n        /* \"#utility.yul\":626:632   */\n      dup3\n        /* \"#utility.yul\":619:623   */\n      0x20\n        /* \"#utility.yul\":611:617   */\n      dup7\n        /* \"#utility.yul\":607:624   */\n      add\n        /* \"#utility.yul\":559:638   */\n      tag_70\n      jump\t// in\n    tag_82:\n        /* \"#utility.yul\":550:638   */\n      swap2\n      pop\n        /* \"#utility.yul\":433:644   */\n      pop\n      swap3\n      swap2\n      pop\n      pop\n      jump\t// out\n        /* \"#utility.yul\":677:1546   */\n    tag_83:\n      0x00\n        /* \"#utility.yul\":791:795   */\n      0x60\n        /* \"#utility.yul\":779:788   */\n      dup3\n        /* \"#utility.yul\":774:777   */\n      dup5\n        /* \"#utility.yul\":770:789   */\n      sub\n        /* \"#utility.yul\":766:796   */\n      slt\n        /* \"#utility.yul\":763:765   */\n      iszero\n      tag_85\n      jumpi\n        /* \"#utility.yul\":809:810   */\n      0x00\n        /* \"#utility.yul\":806:807   */\n      dup1\n        /* \"#utility.yul\":799:811   */\n      revert\n        /* \"#utility.yul\":763:765   */\n    tag_85:\n        /* \"#utility.yul\":831:851   */\n      tag_86\n        /* \"#utility.yul\":846:850   */\n      0x60\n        /* \"#utility.yul\":831:851   */\n      tag_75\n      jump\t// in\n    tag_86:\n        /* \"#utility.yul\":822:851   */\n      swap1\n      pop\n        /* \"#utility.yul\":936:937   */\n      0x00\n        /* \"#utility.yul\":925:934   */\n      dup3\n        /* \"#utility.yul\":921:938   */\n      add\n        /* \"#utility.yul\":908:939   */\n      calldataload\n        /* \"#utility.yul\":966:984   */\n      0xffffffffffffffff\n        /* \"#utility.yul\":958:964   */\n      dup2\n        /* \"#utility.yul\":955:985   */\n      gt\n        /* \"#utility.yul\":952:954   */\n      iszero\n      tag_87\n      jumpi\n        /* \"#utility.yul\":998:999   */\n      0x00\n        /* \"#utility.yul\":995:996   */\n      dup1\n        /* \"#utility.yul\":988:1000   */\n      revert\n        /* \"#utility.yul\":952:954   */\n    tag_87:\n        /* \"#utility.yul\":1041:1100   */\n      tag_88\n        /* \"#utility.yul\":1096:1099   */\n      dup5\n        /* \"#utility.yul\":1087:1093   */\n      dup3\n        /* \"#utility.yul\":1076:1085   */\n      dup6\n        /* \"#utility.yul\":1072:1094   */\n      add\n        /* \"#utility.yul\":1041:1100   */\n      tag_79\n      jump\t// in\n    tag_88:\n        /* \"#utility.yul\":1034:1038   */\n      0x00\n        /* \"#utility.yul\":1027:1032   */\n      dup4\n        /* \"#utility.yul\":1023:1039   */\n      add\n        /* \"#utility.yul\":1016:1101   */\n      mstore\n        /* \"#utility.yul\":861:1112   */\n      pop\n        /* \"#utility.yul\":1199:1201   */\n      0x20\n        /* \"#utility.yul\":1188:1197   */\n      dup3\n        /* \"#utility.yul\":1184:1202   */\n      add\n        /* \"#utility.yul\":1171:1203   */\n      calldataload\n        /* \"#utility.yul\":1230:1248   */\n      0xffffffffffffffff\n        /* \"#utility.yul\":1222:1228   */\n      dup2\n        /* \"#utility.yul\":1219:1249   */\n      gt\n        /* \"#utility.yul\":1216:1218   */\n      iszero\n      tag_89\n      jumpi\n        /* \"#utility.yul\":1262:1263   */\n      0x00\n        /* \"#utility.yul\":1259:1260   */\n      dup1\n        /* \"#utility.yul\":1252:1264   */\n      revert\n        /* \"#utility.yul\":1216:1218   */\n    tag_89:\n        /* \"#utility.yul\":1305:1364   */\n      tag_90\n        /* \"#utility.yul\":1360:1363   */\n      dup5\n        /* \"#utility.yul\":1351:1357   */\n      dup3\n        /* \"#utility.yul\":1340:1349   */\n      dup6\n        /* \"#utility.yul\":1336:1358   */\n      add\n        /* \"#utility.yul\":1305:1364   */\n      tag_79\n      jump\t// in\n    tag_90:\n        /* \"#utility.yul\":1298:1302   */\n      0x20\n        /* \"#utility.yul\":1291:1296   */\n      dup4\n        /* \"#utility.yul\":1287:1303   */\n      add\n        /* \"#utility.yul\":1280:1365   */\n      mstore\n        /* \"#utility.yul\":1122:1376   */\n      pop\n        /* \"#utility.yul\":1439:1441   */\n      0x40\n        /* \"#utility.yul\":1480:1527   */\n      tag_91\n        /* \"#utility.yul\":1523:1526   */\n      dup5\n        /* \"#utility.yul\":1514:1520   */\n      dup3\n        /* \"#utility.yul\":1503:1512   */\n      dup6\n        /* \"#utility.yul\":1499:1521   */\n      add\n        /* \"#utility.yul\":1480:1527   */\n      tag_92\n      jump\t// in\n    tag_91:\n        /* \"#utility.yul\":1473:1477   */\n      0x40\n        /* \"#utility.yul\":1466:1471   */\n      dup4\n        /* \"#utility.yul\":1462:1478   */\n      add\n        /* \"#utility.yul\":1455:1528   */\n      mstore\n        /* \"#utility.yul\":1386:1539   */\n      pop\n        /* \"#utility.yul\":753:1546   */\n      swap3\n      swap2\n      pop\n      pop\n      jump\t// out\n        /* \"#utility.yul\":1552:1687   */\n    tag_92:\n      0x00\n        /* \"#utility.yul\":1634:1640   */\n      dup2\n        /* \"#utility.yul\":1621:1641   */\n      calldataload\n        /* \"#utility.yul\":1612:1641   */\n      swap1\n      pop\n        /* \"#utility.yul\":1650:1681   */\n      tag_94\n        /* \"#utility.yul\":1675:1680   */\n      dup2\n        /* \"#utility.yul\":1650:1681   */\n      tag_95\n      jump\t// in\n    tag_94:\n        /* \"#utility.yul\":1602:1687   */\n      swap3\n      swap2\n      pop\n      pop\n      jump\t// out\n        /* \"#utility.yul\":1693:2467   */\n    tag_29:\n      0x00\n      dup1\n      0x00\n        /* \"#utility.yul\":1853:1855   */\n      0x60\n        /* \"#utility.yul\":1841:1850   */\n      dup5\n        /* \"#utility.yul\":1832:1839   */\n      dup7\n        /* \"#utility.yul\":1828:1851   */\n      sub\n        /* \"#utility.yul\":1824:1856   */\n      slt\n        /* \"#utility.yul\":1821:1823   */\n      iszero\n      tag_97\n      jumpi\n        /* \"#utility.yul\":1869:1870   */\n      0x00\n        /* \"#utility.yul\":1866:1867   */\n      dup1\n        /* \"#utility.yul\":1859:1871   */\n      revert\n        /* \"#utility.yul\":1821:1823   */\n    tag_97:\n        /* \"#utility.yul\":1940:1941   */\n      0x00\n        /* \"#utility.yul\":1929:1938   */\n      dup5\n        /* \"#utility.yul\":1925:1942   */\n      add\n        /* \"#utility.yul\":1912:1943   */\n      calldataload\n        /* \"#utility.yul\":1970:1988   */\n      0xffffffffffffffff\n        /* \"#utility.yul\":1962:1968   */\n      dup2\n        /* \"#utility.yul\":1959:1989   */\n      gt\n        /* \"#utility.yul\":1956:1958   */\n      iszero\n      tag_98\n      jumpi\n        /* \"#utility.yul\":2002:2003   */\n      0x00\n        /* \"#utility.yul\":1999:2000   */\n      dup1\n        /* \"#utility.yul\":1992:2004   */\n      revert\n        /* \"#utility.yul\":1956:1958   */\n    tag_98:\n        /* \"#utility.yul\":2030:2093   */\n      tag_99\n        /* \"#utility.yul\":2085:2092   */\n      dup7\n        /* \"#utility.yul\":2076:2082   */\n      dup3\n        /* \"#utility.yul\":2065:2074   */\n      dup8\n        /* \"#utility.yul\":2061:2083   */\n      add\n        /* \"#utility.yul\":2030:2093   */\n      tag_79\n      jump\t// in\n    tag_99:\n        /* \"#utility.yul\":2020:2093   */\n      swap4\n      pop\n        /* \"#utility.yul\":1883:2103   */\n      pop\n        /* \"#utility.yul\":2170:2172   */\n      0x20\n        /* \"#utility.yul\":2159:2168   */\n      dup5\n        /* \"#utility.yul\":2155:2173   */\n      add\n        /* \"#utility.yul\":2142:2174   */\n      calldataload\n        /* \"#utility.yul\":2201:2219   */\n      0xffffffffffffffff\n        /* \"#utility.yul\":2193:2199   */\n      dup2\n        /* \"#utility.yul\":2190:2220   */\n      gt\n        /* \"#utility.yul\":2187:2189   */\n      iszero\n      tag_100\n      jumpi\n        /* \"#utility.yul\":2233:2234   */\n      0x00\n        /* \"#utility.yul\":2230:2231   */\n      dup1\n        /* \"#utility.yul\":2223:2235   */\n      revert\n        /* \"#utility.yul\":2187:2189   */\n    tag_100:\n        /* \"#utility.yul\":2261:2324   */\n      tag_101\n        /* \"#utility.yul\":2316:2323   */\n      dup7\n        /* \"#utility.yul\":2307:2313   */\n      dup3\n        /* \"#utility.yul\":2296:2305   */\n      dup8\n        /* \"#utility.yul\":2292:2314   */\n      add\n        /* \"#utility.yul\":2261:2324   */\n      tag_79\n      jump\t// in\n    tag_101:\n        /* \"#utility.yul\":2251:2324   */\n      swap3\n      pop\n        /* \"#utility.yul\":2113:2334   */\n      pop\n        /* \"#utility.yul\":2373:2375   */\n      0x40\n        /* \"#utility.yul\":2399:2450   */\n      tag_102\n        /* \"#utility.yul\":2442:2449   */\n      dup7\n        /* \"#utility.yul\":2433:2439   */\n      dup3\n        /* \"#utility.yul\":2422:2431   */\n      dup8\n        /* \"#utility.yul\":2418:2440   */\n      add\n        /* \"#utility.yul\":2399:2450   */\n      tag_92\n      jump\t// in\n    tag_102:\n        /* \"#utility.yul\":2389:2450   */\n      swap2\n      pop\n        /* \"#utility.yul\":2344:2460   */\n      pop\n        /* \"#utility.yul\":1811:2467   */\n      swap3\n      pop\n      swap3\n      pop\n      swap3\n      jump\t// out\n        /* \"#utility.yul\":2473:2870   */\n    tag_17:\n      0x00\n        /* \"#utility.yul\":2602:2604   */\n      0x20\n        /* \"#utility.yul\":2590:2599   */\n      dup3\n        /* \"#utility.yul\":2581:2588   */\n      dup5\n        /* \"#utility.yul\":2577:2600   */\n      sub\n        /* \"#utility.yul\":2573:2605   */\n      slt\n        /* \"#utility.yul\":2570:2572   */\n      iszero\n      tag_104\n      jumpi\n        /* \"#utility.yul\":2618:2619   */\n      0x00\n        /* \"#utility.yul\":2615:2616   */\n      dup1\n        /* \"#utility.yul\":2608:2620   */\n      revert\n        /* \"#utility.yul\":2570:2572   */\n    tag_104:\n        /* \"#utility.yul\":2689:2690   */\n      0x00\n        /* \"#utility.yul\":2678:2687   */\n      dup3\n        /* \"#utility.yul\":2674:2691   */\n      add\n        /* \"#utility.yul\":2661:2692   */\n      calldataload\n        /* \"#utility.yul\":2719:2737   */\n      0xffffffffffffffff\n        /* \"#utility.yul\":2711:2717   */\n      dup2\n        /* \"#utility.yul\":2708:2738   */\n      gt\n        /* \"#utility.yul\":2705:2707   */\n      iszero\n      tag_105\n      jumpi\n        /* \"#utility.yul\":2751:2752   */\n      0x00\n        /* \"#utility.yul\":2748:2749   */\n      dup1\n        /* \"#utility.yul\":2741:2753   */\n      revert\n        /* \"#utility.yul\":2705:2707   */\n    tag_105:\n        /* \"#utility.yul\":2779:2853   */\n      tag_106\n        /* \"#utility.yul\":2845:2852   */\n      dup5\n        /* \"#utility.yul\":2836:2842   */\n      dup3\n        /* \"#utility.yul\":2825:2834   */\n      dup6\n        /* \"#utility.yul\":2821:2843   */\n      add\n        /* \"#utility.yul\":2779:2853   */\n      tag_83\n      jump\t// in\n    tag_106:\n        /* \"#utility.yul\":2769:2853   */\n      swap2\n      pop\n        /* \"#utility.yul\":2632:2863   */\n      pop\n        /* \"#utility.yul\":2560:2870   */\n      swap3\n      swap2\n      pop\n      pop\n      jump\t// out\n        /* \"#utility.yul\":2876:3220   */\n    tag_107:\n      0x00\n        /* \"#utility.yul\":2982:3021   */\n      tag_109\n        /* \"#utility.yul\":3015:3020   */\n      dup3\n        /* \"#utility.yul\":2982:3021   */\n      tag_110\n      jump\t// in\n    tag_109:\n        /* \"#utility.yul\":3037:3098   */\n      tag_111\n        /* \"#utility.yul\":3091:3097   */\n      dup2\n        /* \"#utility.yul\":3086:3089   */\n      dup6\n        /* \"#utility.yul\":3037:3098   */\n      tag_112\n      jump\t// in\n    tag_111:\n        /* \"#utility.yul\":3030:3098   */\n      swap4\n      pop\n        /* \"#utility.yul\":3107:3159   */\n      tag_113\n        /* \"#utility.yul\":3152:3158   */\n      dup2\n        /* \"#utility.yul\":3147:3150   */\n      dup6\n        /* \"#utility.yul\":3140:3144   */\n      0x20\n        /* \"#utility.yul\":3133:3138   */\n      dup7\n        /* \"#utility.yul\":3129:3145   */\n      add\n        /* \"#utility.yul\":3107:3159   */\n      tag_114\n      jump\t// in\n    tag_113:\n        /* \"#utility.yul\":3184:3213   */\n      tag_115\n        /* \"#utility.yul\":3206:3212   */\n      dup2\n        /* \"#utility.yul\":3184:3213   */\n      tag_116\n      jump\t// in\n    tag_115:\n        /* \"#utility.yul\":3179:3182   */\n      dup5\n        /* \"#utility.yul\":3175:3214   */\n      add\n        /* \"#utility.yul\":3168:3214   */\n      swap2\n      pop\n        /* \"#utility.yul\":2958:3220   */\n      pop\n      swap3\n      swap2\n      pop\n      pop\n      jump\t// out\n        /* \"#utility.yul\":3226:3590   */\n    tag_117:\n      0x00\n        /* \"#utility.yul\":3342:3381   */\n      tag_119\n        /* \"#utility.yul\":3375:3380   */\n      dup3\n        /* \"#utility.yul\":3342:3381   */\n      tag_110\n      jump\t// in\n    tag_119:\n        /* \"#utility.yul\":3397:3468   */\n      tag_120\n        /* \"#utility.yul\":3461:3467   */\n      dup2\n        /* \"#utility.yul\":3456:3459   */\n      dup6\n        /* \"#utility.yul\":3397:3468   */\n      tag_121\n      jump\t// in\n    tag_120:\n        /* \"#utility.yul\":3390:3468   */\n      swap4\n      pop\n        /* \"#utility.yul\":3477:3529   */\n      tag_122\n        /* \"#utility.yul\":3522:3528   */\n      dup2\n        /* \"#utility.yul\":3517:3520   */\n      dup6\n        /* \"#utility.yul\":3510:3514   */\n      0x20\n        /* \"#utility.yul\":3503:3508   */\n      dup7\n        /* \"#utility.yul\":3499:3515   */\n      add\n        /* \"#utility.yul\":3477:3529   */\n      tag_114\n      jump\t// in\n    tag_122:\n        /* \"#utility.yul\":3554:3583   */\n      tag_123\n        /* \"#utility.yul\":3576:3582   */\n      dup2\n        /* \"#utility.yul\":3554:3583   */\n      tag_116\n      jump\t// in\n    tag_123:\n        /* \"#utility.yul\":3549:3552   */\n      dup5\n        /* \"#utility.yul\":3545:3584   */\n      add\n        /* \"#utility.yul\":3538:3584   */\n      swap2\n      pop\n        /* \"#utility.yul\":3318:3590   */\n      pop\n      swap3\n      swap2\n      pop\n      pop\n      jump\t// out\n        /* \"#utility.yul\":3646:4487   */\n    tag_124:\n      0x00\n        /* \"#utility.yul\":3793:3797   */\n      0x60\n        /* \"#utility.yul\":3788:3791   */\n      dup4\n        /* \"#utility.yul\":3784:3798   */\n      add\n        /* \"#utility.yul\":3878:3882   */\n      0x00\n        /* \"#utility.yul\":3871:3876   */\n      dup4\n        /* \"#utility.yul\":3867:3883   */\n      add\n        /* \"#utility.yul\":3861:3884   */\n      mload\n        /* \"#utility.yul\":3931:3934   */\n      dup5\n        /* \"#utility.yul\":3925:3929   */\n      dup3\n        /* \"#utility.yul\":3921:3935   */\n      sub\n        /* \"#utility.yul\":3914:3918   */\n      0x00\n        /* \"#utility.yul\":3909:3912   */\n      dup7\n        /* \"#utility.yul\":3905:3919   */\n      add\n        /* \"#utility.yul\":3898:3936   */\n      mstore\n        /* \"#utility.yul\":3957:4030   */\n      tag_126\n        /* \"#utility.yul\":4025:4029   */\n      dup3\n        /* \"#utility.yul\":4011:4023   */\n      dup3\n        /* \"#utility.yul\":3957:4030   */\n      tag_107\n      jump\t// in\n    tag_126:\n        /* \"#utility.yul\":3949:4030   */\n      swap2\n      pop\n        /* \"#utility.yul\":3808:4041   */\n      pop\n        /* \"#utility.yul\":4123:4127   */\n      0x20\n        /* \"#utility.yul\":4116:4121   */\n      dup4\n        /* \"#utility.yul\":4112:4128   */\n      add\n        /* \"#utility.yul\":4106:4129   */\n      mload\n        /* \"#utility.yul\":4176:4179   */\n      dup5\n        /* \"#utility.yul\":4170:4174   */\n      dup3\n        /* \"#utility.yul\":4166:4180   */\n      sub\n        /* \"#utility.yul\":4159:4163   */\n      0x20\n        /* \"#utility.yul\":4154:4157   */\n      dup7\n        /* \"#utility.yul\":4150:4164   */\n      add\n        /* \"#utility.yul\":4143:4181   */\n      mstore\n        /* \"#utility.yul\":4202:4275   */\n      tag_127\n        /* \"#utility.yul\":4270:4274   */\n      dup3\n        /* \"#utility.yul\":4256:4268   */\n      dup3\n        /* \"#utility.yul\":4202:4275   */\n      tag_107\n      jump\t// in\n    tag_127:\n        /* \"#utility.yul\":4194:4275   */\n      swap2\n      pop\n        /* \"#utility.yul\":4051:4286   */\n      pop\n        /* \"#utility.yul\":4372:4376   */\n      0x40\n        /* \"#utility.yul\":4365:4370   */\n      dup4\n        /* \"#utility.yul\":4361:4377   */\n      add\n        /* \"#utility.yul\":4355:4378   */\n      mload\n        /* \"#utility.yul\":4391:4450   */\n      tag_128\n        /* \"#utility.yul\":4444:4448   */\n      0x40\n        /* \"#utility.yul\":4439:4442   */\n      dup7\n        /* \"#utility.yul\":4435:4449   */\n      add\n        /* \"#utility.yul\":4421:4433   */\n      dup3\n        /* \"#utility.yul\":4391:4450   */\n      tag_129\n      jump\t// in\n    tag_128:\n        /* \"#utility.yul\":4296:4460   */\n      pop\n        /* \"#utility.yul\":4477:4481   */\n      dup1\n        /* \"#utility.yul\":4470:4481   */\n      swap2\n      pop\n        /* \"#utility.yul\":3762:4487   */\n      pop\n      swap3\n      swap2\n      pop\n      pop\n      jump\t// out\n        /* \"#utility.yul\":4493:4595   */\n    tag_129:\n        /* \"#utility.yul\":4566:4588   */\n      tag_131\n        /* \"#utility.yul\":4582:4587   */\n      dup2\n        /* \"#utility.yul\":4566:4588   */\n      tag_132\n      jump\t// in\n    tag_131:\n        /* \"#utility.yul\":4561:4564   */\n      dup3\n        /* \"#utility.yul\":4554:4589   */\n      mstore\n        /* \"#utility.yul\":4544:4595   */\n      pop\n      pop\n      jump\t// out\n        /* \"#utility.yul\":4601:4713   */\n    tag_133:\n        /* \"#utility.yul\":4684:4706   */\n      tag_135\n        /* \"#utility.yul\":4700:4705   */\n      dup2\n        /* \"#utility.yul\":4684:4706   */\n      tag_132\n      jump\t// in\n    tag_135:\n        /* \"#utility.yul\":4679:4682   */\n      dup3\n        /* \"#utility.yul\":4672:4707   */\n      mstore\n        /* \"#utility.yul\":4662:4713   */\n      pop\n      pop\n      jump\t// out\n        /* \"#utility.yul\":4719:5032   */\n    tag_12:\n      0x00\n        /* \"#utility.yul\":4870:4872   */\n      0x20\n        /* \"#utility.yul\":4859:4868   */\n      dup3\n        /* \"#utility.yul\":4855:4873   */\n      add\n        /* \"#utility.yul\":4847:4873   */\n      swap1\n      pop\n        /* \"#utility.yul\":4919:4928   */\n      dup2\n        /* \"#utility.yul\":4913:4917   */\n      dup2\n        /* \"#utility.yul\":4909:4929   */\n      sub\n        /* \"#utility.yul\":4905:4906   */\n      0x00\n        /* \"#utility.yul\":4894:4903   */\n      dup4\n        /* \"#utility.yul\":4890:4907   */\n      add\n        /* \"#utility.yul\":4883:4930   */\n      mstore\n        /* \"#utility.yul\":4947:5025   */\n      tag_137\n        /* \"#utility.yul\":5020:5024   */\n      dup2\n        /* \"#utility.yul\":5011:5017   */\n      dup5\n        /* \"#utility.yul\":4947:5025   */\n      tag_117\n      jump\t// in\n    tag_137:\n        /* \"#utility.yul\":4939:5025   */\n      swap1\n      pop\n        /* \"#utility.yul\":4837:5032   */\n      swap3\n      swap2\n      pop\n      pop\n      jump\t// out\n        /* \"#utility.yul\":5038:5654   */\n    tag_26:\n      0x00\n        /* \"#utility.yul\":5261:5263   */\n      0x60\n        /* \"#utility.yul\":5250:5259   */\n      dup3\n        /* \"#utility.yul\":5246:5264   */\n      add\n        /* \"#utility.yul\":5238:5264   */\n      swap1\n      pop\n        /* \"#utility.yul\":5310:5319   */\n      dup2\n        /* \"#utility.yul\":5304:5308   */\n      dup2\n        /* \"#utility.yul\":5300:5320   */\n      sub\n        /* \"#utility.yul\":5296:5297   */\n      0x00\n        /* \"#utility.yul\":5285:5294   */\n      dup4\n        /* \"#utility.yul\":5281:5298   */\n      add\n        /* \"#utility.yul\":5274:5321   */\n      mstore\n        /* \"#utility.yul\":5338:5416   */\n      tag_139\n        /* \"#utility.yul\":5411:5415   */\n      dup2\n        /* \"#utility.yul\":5402:5408   */\n      dup7\n        /* \"#utility.yul\":5338:5416   */\n      tag_117\n      jump\t// in\n    tag_139:\n        /* \"#utility.yul\":5330:5416   */\n      swap1\n      pop\n        /* \"#utility.yul\":5463:5472   */\n      dup2\n        /* \"#utility.yul\":5457:5461   */\n      dup2\n        /* \"#utility.yul\":5453:5473   */\n      sub\n        /* \"#utility.yul\":5448:5450   */\n      0x20\n        /* \"#utility.yul\":5437:5446   */\n      dup4\n        /* \"#utility.yul\":5433:5451   */\n      add\n        /* \"#utility.yul\":5426:5474   */\n      mstore\n        /* \"#utility.yul\":5491:5569   */\n      tag_140\n        /* \"#utility.yul\":5564:5568   */\n      dup2\n        /* \"#utility.yul\":5555:5561   */\n      dup6\n        /* \"#utility.yul\":5491:5569   */\n      tag_117\n      jump\t// in\n    tag_140:\n        /* \"#utility.yul\":5483:5569   */\n      swap1\n      pop\n        /* \"#utility.yul\":5579:5647   */\n      tag_141\n        /* \"#utility.yul\":5643:5645   */\n      0x40\n        /* \"#utility.yul\":5632:5641   */\n      dup4\n        /* \"#utility.yul\":5628:5646   */\n      add\n        /* \"#utility.yul\":5619:5625   */\n      dup5\n        /* \"#utility.yul\":5579:5647   */\n      tag_133\n      jump\t// in\n    tag_141:\n        /* \"#utility.yul\":5228:5654   */\n      swap5\n      swap4\n      pop\n      pop\n      pop\n      pop\n      jump\t// out\n        /* \"#utility.yul\":5660:6017   */\n    tag_22:\n      0x00\n        /* \"#utility.yul\":5833:5835   */\n      0x20\n        /* \"#utility.yul\":5822:5831   */\n      dup3\n        /* \"#utility.yul\":5818:5836   */\n      add\n        /* \"#utility.yul\":5810:5836   */\n      swap1\n      pop\n        /* \"#utility.yul\":5882:5891   */\n      dup2\n        /* \"#utility.yul\":5876:5880   */\n      dup2\n        /* \"#utility.yul\":5872:5892   */\n      sub\n        /* \"#utility.yul\":5868:5869   */\n      0x00\n        /* \"#utility.yul\":5857:5866   */\n      dup4\n        /* \"#utility.yul\":5853:5870   */\n      add\n        /* \"#utility.yul\":5846:5893   */\n      mstore\n        /* \"#utility.yul\":5910:6010   */\n      tag_143\n        /* \"#utility.yul\":6005:6009   */\n      dup2\n        /* \"#utility.yul\":5996:6002   */\n      dup5\n        /* \"#utility.yul\":5910:6010   */\n      tag_124\n      jump\t// in\n    tag_143:\n        /* \"#utility.yul\":5902:6010   */\n      swap1\n      pop\n        /* \"#utility.yul\":5800:6017   */\n      swap3\n      swap2\n      pop\n      pop\n      jump\t// out\n        /* \"#utility.yul\":6023:6301   */\n    tag_75:\n      0x00\n        /* \"#utility.yul\":6089:6091   */\n      0x40\n        /* \"#utility.yul\":6083:6092   */\n      mload\n        /* \"#utility.yul\":6073:6092   */\n      swap1\n      pop\n        /* \"#utility.yul\":6131:6135   */\n      dup2\n        /* \"#utility.yul\":6123:6129   */\n      dup2\n        /* \"#utility.yul\":6119:6136   */\n      add\n        /* \"#utility.yul\":6238:6244   */\n      dup2\n        /* \"#utility.yul\":6226:6236   */\n      dup2\n        /* \"#utility.yul\":6223:6245   */\n      lt\n        /* \"#utility.yul\":6202:6220   */\n      0xffffffffffffffff\n        /* \"#utility.yul\":6190:6200   */\n      dup3\n        /* \"#utility.yul\":6187:6221   */\n      gt\n        /* \"#utility.yul\":6184:6246   */\n      or\n        /* \"#utility.yul\":6181:6183   */\n      iszero\n      tag_145\n      jumpi\n        /* \"#utility.yul\":6249:6262   */\n      tag_146\n      tag_147\n      jump\t// in\n    tag_146:\n        /* \"#utility.yul\":6181:6183   */\n    tag_145:\n        /* \"#utility.yul\":6284:6294   */\n      dup1\n        /* \"#utility.yul\":6280:6282   */\n      0x40\n        /* \"#utility.yul\":6273:6295   */\n      mstore\n        /* \"#utility.yul\":6063:6301   */\n      pop\n      swap2\n      swap1\n      pop\n      jump\t// out\n        /* \"#utility.yul\":6307:6634   */\n    tag_74:\n      0x00\n        /* \"#utility.yul\":6459:6477   */\n      0xffffffffffffffff\n        /* \"#utility.yul\":6451:6457   */\n      dup3\n        /* \"#utility.yul\":6448:6478   */\n      gt\n        /* \"#utility.yul\":6445:6447   */\n      iszero\n      tag_149\n      jumpi\n        /* \"#utility.yul\":6481:6494   */\n      tag_150\n      tag_147\n      jump\t// in\n    tag_150:\n        /* \"#utility.yul\":6445:6447   */\n    tag_149:\n        /* \"#utility.yul\":6561:6565   */\n      0x1f\n        /* \"#utility.yul\":6557:6566   */\n      not\n        /* \"#utility.yul\":6550:6554   */\n      0x1f\n        /* \"#utility.yul\":6542:6548   */\n      dup4\n        /* \"#utility.yul\":6538:6555   */\n      add\n        /* \"#utility.yul\":6534:6567   */\n      and\n        /* \"#utility.yul\":6526:6567   */\n      swap1\n      pop\n        /* \"#utility.yul\":6622:6626   */\n      0x20\n        /* \"#utility.yul\":6616:6620   */\n      dup2\n        /* \"#utility.yul\":6612:6627   */\n      add\n        /* \"#utility.yul\":6604:6627   */\n      swap1\n      pop\n        /* \"#utility.yul\":6374:6634   */\n      swap2\n      swap1\n      pop\n      jump\t// out\n        /* \"#utility.yul\":6640:6739   */\n    tag_110:\n      0x00\n        /* \"#utility.yul\":6726:6731   */\n      dup2\n        /* \"#utility.yul\":6720:6732   */\n      mload\n        /* \"#utility.yul\":6710:6732   */\n      swap1\n      pop\n        /* \"#utility.yul\":6699:6739   */\n      swap2\n      swap1\n      pop\n      jump\t// out\n        /* \"#utility.yul\":6745:6904   */\n    tag_112:\n      0x00\n        /* \"#utility.yul\":6853:6859   */\n      dup3\n        /* \"#utility.yul\":6848:6851   */\n      dup3\n        /* \"#utility.yul\":6841:6860   */\n      mstore\n        /* \"#utility.yul\":6893:6897   */\n      0x20\n        /* \"#utility.yul\":6888:6891   */\n      dup3\n        /* \"#utility.yul\":6884:6898   */\n      add\n        /* \"#utility.yul\":6869:6898   */\n      swap1\n      pop\n        /* \"#utility.yul\":6831:6904   */\n      swap3\n      swap2\n      pop\n      pop\n      jump\t// out\n        /* \"#utility.yul\":6910:7079   */\n    tag_121:\n      0x00\n        /* \"#utility.yul\":7028:7034   */\n      dup3\n        /* \"#utility.yul\":7023:7026   */\n      dup3\n        /* \"#utility.yul\":7016:7035   */\n      mstore\n        /* \"#utility.yul\":7068:7072   */\n      0x20\n        /* \"#utility.yul\":7063:7066   */\n      dup3\n        /* \"#utility.yul\":7059:7073   */\n      add\n        /* \"#utility.yul\":7044:7073   */\n      swap1\n      pop\n        /* \"#utility.yul\":7006:7079   */\n      swap3\n      swap2\n      pop\n      pop\n      jump\t// out\n        /* \"#utility.yul\":7085:7171   */\n    tag_132:\n      0x00\n        /* \"#utility.yul\":7160:7164   */\n      0xff\n        /* \"#utility.yul\":7153:7158   */\n      dup3\n        /* \"#utility.yul\":7149:7165   */\n      and\n        /* \"#utility.yul\":7138:7165   */\n      swap1\n      pop\n        /* \"#utility.yul\":7128:7171   */\n      swap2\n      swap1\n      pop\n      jump\t// out\n        /* \"#utility.yul\":7177:7331   */\n    tag_78:\n        /* \"#utility.yul\":7261:7267   */\n      dup3\n        /* \"#utility.yul\":7256:7259   */\n      dup2\n        /* \"#utility.yul\":7251:7254   */\n      dup4\n        /* \"#utility.yul\":7238:7268   */\n      calldatacopy\n        /* \"#utility.yul\":7323:7324   */\n      0x00\n        /* \"#utility.yul\":7314:7320   */\n      dup4\n        /* \"#utility.yul\":7309:7312   */\n      dup4\n        /* \"#utility.yul\":7305:7321   */\n      add\n        /* \"#utility.yul\":7298:7325   */\n      mstore\n        /* \"#utility.yul\":7228:7331   */\n      pop\n      pop\n      pop\n      jump\t// out\n        /* \"#utility.yul\":7337:7644   */\n    tag_114:\n        /* \"#utility.yul\":7405:7406   */\n      0x00\n        /* \"#utility.yul\":7415:7528   */\n    tag_157:\n        /* \"#utility.yul\":7429:7435   */\n      dup4\n        /* \"#utility.yul\":7426:7427   */\n      dup2\n        /* \"#utility.yul\":7423:7436   */\n      lt\n        /* \"#utility.yul\":7415:7528   */\n      iszero\n      tag_159\n      jumpi\n        /* \"#utility.yul\":7514:7515   */\n      dup1\n        /* \"#utility.yul\":7509:7512   */\n      dup3\n        /* \"#utility.yul\":7505:7516   */\n      add\n        /* \"#utility.yul\":7499:7517   */\n      mload\n        /* \"#utility.yul\":7495:7496   */\n      dup2\n        /* \"#utility.yul\":7490:7493   */\n      dup5\n        /* \"#utility.yul\":7486:7497   */\n      add\n        /* \"#utility.yul\":7479:7518   */\n      mstore\n        /* \"#utility.yul\":7451:7453   */\n      0x20\n        /* \"#utility.yul\":7448:7449   */\n      dup2\n        /* \"#utility.yul\":7444:7454   */\n      add\n        /* \"#utility.yul\":7439:7454   */\n      swap1\n      pop\n        /* \"#utility.yul\":7415:7528   */\n      jump(tag_157)\n    tag_159:\n        /* \"#utility.yul\":7546:7552   */\n      dup4\n        /* \"#utility.yul\":7543:7544   */\n      dup2\n        /* \"#utility.yul\":7540:7553   */\n      gt\n        /* \"#utility.yul\":7537:7539   */\n      iszero\n      tag_160\n      jumpi\n        /* \"#utility.yul\":7626:7627   */\n      0x00\n        /* \"#utility.yul\":7617:7623   */\n      dup5\n        /* \"#utility.yul\":7612:7615   */\n      dup5\n        /* \"#utility.yul\":7608:7624   */\n      add\n        /* \"#utility.yul\":7601:7628   */\n      mstore\n        /* \"#utility.yul\":7537:7539   */\n    tag_160:\n        /* \"#utility.yul\":7386:7644   */\n      pop\n      pop\n      pop\n      pop\n      jump\t// out\n        /* \"#utility.yul\":7650:7698   */\n    tag_147:\n        /* \"#utility.yul\":7683:7692   */\n      invalid\n        /* \"#utility.yul\":7704:7806   */\n    tag_116:\n      0x00\n        /* \"#utility.yul\":7796:7798   */\n      0x1f\n        /* \"#utility.yul\":7792:7799   */\n      not\n        /* \"#utility.yul\":7787:7789   */\n      0x1f\n        /* \"#utility.yul\":7780:7785   */\n      dup4\n        /* \"#utility.yul\":7776:7790   */\n      add\n        /* \"#utility.yul\":7772:7800   */\n      and\n        /* \"#utility.yul\":7762:7800   */\n      swap1\n      pop\n        /* \"#utility.yul\":7752:7806   */\n      swap2\n      swap1\n      pop\n      jump\t// out\n        /* \"#utility.yul\":7812:7930   */\n    tag_95:\n        /* \"#utility.yul\":7883:7905   */\n      tag_164\n        /* \"#utility.yul\":7899:7904   */\n      dup2\n        /* \"#utility.yul\":7883:7905   */\n      tag_132\n      jump\t// in\n    tag_164:\n        /* \"#utility.yul\":7876:7881   */\n      dup2\n        /* \"#utility.yul\":7873:7906   */\n      eq\n        /* \"#utility.yul\":7863:7865   */\n      tag_165\n      jumpi\n        /* \"#utility.yul\":7920:7921   */\n      0x00\n        /* \"#utility.yul\":7917:7918   */\n      dup1\n        /* \"#utility.yul\":7910:7922   */\n      revert\n        /* \"#utility.yul\":7863:7865   */\n    tag_165:\n        /* \"#utility.yul\":7853:7930   */\n      pop\n      jump\t// out\n\n    auxdata: 0xa2646970667358221220f918747fa306217f999cab475c4f5fd2cd5790aeb59fbbe131e8d278a8aa7eff64736f6c63430007060033\n}\n",
				"bytecode": {
					"linkReferences": {},
					"object": "608060405234801561001057600080fd5b50610b65806100206000396000f3fe608060405234801561001057600080fd5b50600436106100625760003560e01c806350808e8b1461006757806371cdd53c1461008557806389ab09581461008f5780638c14acd5146100ab57806397df9d3f146100c9578063a9f921ab146100e9575b600080fd5b61006f610105565b60405161007c919061099f565b60405180910390f35b61008d6101a9565b005b6100a960048036038101906100a49190610877565b610293565b005b6100b36102f6565b6040516100c09190610a06565b60405180910390f35b6100d1610471565b6040516100e0939291906109c1565b60405180910390f35b61010360048036038101906100fe91906107f8565b6105c6565b005b6060600080018054600181600116156101000203166002900480601f01602080910402602001604051908101604052809291908181526020018280546001816001161561010002031660029004801561019f5780601f106101745761010080835404028352916020019161019f565b820191906000526020600020905b81548152906001019060200180831161018257829003601f168201915b5050505050905090565b60405180606001604052806040518060400160405280600481526020017f504f4f500000000000000000000000000000000000000000000000000000000081525081526020016040518060400160405280600a81526020017f507974686f6e204f4f50000000000000000000000000000000000000000000008152508152602001602360ff1681525060008082015181600001908051906020019061024f92919061061c565b50602082015181600101908051906020019061026c92919061061c565b5060408201518160020160006101000a81548160ff021916908360ff160217905550905050565b806000808201518160000190805190602001906102b192919061061c565b5060208201518160010190805190602001906102ce92919061061c565b5060408201518160020160006101000a81548160ff021916908360ff16021790555090505050565b6102fe6106aa565b6000604051806060016040529081600082018054600181600116156101000203166002900480601f0160208091040260200160405190810160405280929190818152602001828054600181600116156101000203166002900480156103a45780601f10610379576101008083540402835291602001916103a4565b820191906000526020600020905b81548152906001019060200180831161038757829003601f168201915b50505050508152602001600182018054600181600116156101000203166002900480601f0160208091040260200160405190810160405280929190818152602001828054600181600116156101000203166002900480156104465780601f1061041b57610100808354040283529160200191610446565b820191906000526020600020905b81548152906001019060200180831161042957829003601f168201915b505050505081526020016002820160009054906101000a900460ff1660ff1660ff1681525050905090565b6000806000018054600181600116156101000203166002900480601f01602080910402602001604051908101604052809291908181526020018280546001816001161561010002031660029004801561050b5780601f106104e05761010080835404028352916020019161050b565b820191906000526020600020905b8154815290600101906020018083116104ee57829003601f168201915b505050505090806001018054600181600116156101000203166002900480601f0160208091040260200160405190810160405280929190818152602001828054600181600116156101000203166002900480156105a95780601f1061057e576101008083540402835291602001916105a9565b820191906000526020600020905b81548152906001019060200180831161058c57829003601f168201915b5050505050908060020160009054906101000a900460ff16905083565b826000800190805190602001906105de92919061061c565b5081600060010190805190602001906105f892919061061c565b5080600060020160006101000a81548160ff021916908360ff160217905550505050565b828054600181600116156101000203166002900490600052602060002090601f0160209004810192826106525760008555610699565b82601f1061066b57805160ff1916838001178555610699565b82800160010185558215610699579182015b8281111561069857825182559160200191906001019061067d565b5b5090506106a691906106ce565b5090565b60405180606001604052806060815260200160608152602001600060ff1681525090565b5b808211156106e75760008160009055506001016106cf565b5090565b60006106fe6106f984610a59565b610a28565b90508281526020810184848401111561071657600080fd5b610721848285610ac3565b509392505050565b600082601f83011261073a57600080fd5b813561074a8482602086016106eb565b91505092915050565b60006060828403121561076557600080fd5b61076f6060610a28565b9050600082013567ffffffffffffffff81111561078b57600080fd5b61079784828501610729565b600083015250602082013567ffffffffffffffff8111156107b757600080fd5b6107c384828501610729565b60208301525060406107d7848285016107e3565b60408301525092915050565b6000813590506107f281610b18565b92915050565b60008060006060848603121561080d57600080fd5b600084013567ffffffffffffffff81111561082757600080fd5b61083386828701610729565b935050602084013567ffffffffffffffff81111561085057600080fd5b61085c86828701610729565b925050604061086d868287016107e3565b9150509250925092565b60006020828403121561088957600080fd5b600082013567ffffffffffffffff8111156108a357600080fd5b6108af84828501610753565b91505092915050565b60006108c382610a89565b6108cd8185610a94565b93506108dd818560208601610ad2565b6108e681610b07565b840191505092915050565b60006108fc82610a89565b6109068185610aa5565b9350610916818560208601610ad2565b61091f81610b07565b840191505092915050565b6000606083016000830151848203600086015261094782826108b8565b9150506020830151848203602086015261096182826108b8565b91505060408301516109766040860182610981565b508091505092915050565b61098a81610ab6565b82525050565b61099981610ab6565b82525050565b600060208201905081810360008301526109b981846108f1565b905092915050565b600060608201905081810360008301526109db81866108f1565b905081810360208301526109ef81856108f1565b90506109fe6040830184610990565b949350505050565b60006020820190508181036000830152610a20818461092a565b905092915050565b6000604051905081810181811067ffffffffffffffff82111715610a4f57610a4e610b05565b5b8060405250919050565b600067ffffffffffffffff821115610a7457610a73610b05565b5b601f19601f8301169050602081019050919050565b600081519050919050565b600082825260208201905092915050565b600082825260208201905092915050565b600060ff82169050919050565b82818337600083830152505050565b60005b83811015610af0578082015181840152602081019050610ad5565b83811115610aff576000848401525b50505050565bfe5b6000601f19601f8301169050919050565b610b2181610ab6565b8114610b2c57600080fd5b5056fea2646970667358221220f918747fa306217f999cab475c4f5fd2cd5790aeb59fbbe131e8d278a8aa7eff64736f6c63430007060033",
					"opcodes": "PUSH1 0x80 PUSH1 0x40 MSTORE CALLVALUE DUP1 ISZERO PUSH2 0x10 JUMPI PUSH1 0x0 DUP1 REVERT JUMPDEST POP PUSH2 0xB65 DUP1 PUSH2 0x20 PUSH1 0x0 CODECOPY PUSH1 0x0 RETURN INVALID PUSH1 0x80 PUSH1 0x40 MSTORE CALLVALUE DUP1 ISZERO PUSH2 0x10 JUMPI PUSH1 0x0 DUP1 REVERT JUMPDEST POP PUSH1 0x4 CALLDATASIZE LT PUSH2 0x62 JUMPI PUSH1 0x0 CALLDATALOAD PUSH1 0xE0 SHR DUP1 PUSH4 0x50808E8B EQ PUSH2 0x67 JUMPI DUP1 PUSH4 0x71CDD53C EQ PUSH2 0x85 JUMPI DUP1 PUSH4 0x89AB0958 EQ PUSH2 0x8F JUMPI DUP1 PUSH4 0x8C14ACD5 EQ PUSH2 0xAB JUMPI DUP1 PUSH4 0x97DF9D3F EQ PUSH2 0xC9 JUMPI DUP1 PUSH4 0xA9F921AB EQ PUSH2 0xE9 JUMPI JUMPDEST PUSH1 0x0 DUP1 REVERT JUMPDEST PUSH2 0x6F PUSH2 0x105 JUMP JUMPDEST PUSH1 0x40 MLOAD PUSH2 0x7C SWAP2 SWAP1 PUSH2 0x99F JUMP JUMPDEST PUSH1 0x40 MLOAD DUP1 SWAP2 SUB SWAP1 RETURN JUMPDEST PUSH2 0x8D PUSH2 0x1A9 JUMP JUMPDEST STOP JUMPDEST PUSH2 0xA9 PUSH1 0x4 DUP1 CALLDATASIZE SUB DUP2 ADD SWAP1 PUSH2 0xA4 SWAP2 SWAP1 PUSH2 0x877 JUMP JUMPDEST PUSH2 0x293 JUMP JUMPDEST STOP JUMPDEST PUSH2 0xB3 PUSH2 0x2F6 JUMP JUMPDEST PUSH1 0x40 MLOAD PUSH2 0xC0 SWAP2 SWAP1 PUSH2 0xA06 JUMP JUMPDEST PUSH1 0x40 MLOAD DUP1 SWAP2 SUB SWAP1 RETURN JUMPDEST PUSH2 0xD1 PUSH2 0x471 JUMP JUMPDEST PUSH1 0x40 MLOAD PUSH2 0xE0 SWAP4 SWAP3 SWAP2 SWAP1 PUSH2 0x9C1 JUMP JUMPDEST PUSH1 0x40 MLOAD DUP1 SWAP2 SUB SWAP1 RETURN JUMPDEST PUSH2 0x103 PUSH1 0x4 DUP1 CALLDATASIZE SUB DUP2 ADD SWAP1 PUSH2 0xFE SWAP2 SWAP1 PUSH2 0x7F8 JUMP JUMPDEST PUSH2 0x5C6 JUMP JUMPDEST STOP JUMPDEST PUSH1 0x60 PUSH1 0x0 DUP1 ADD DUP1 SLOAD PUSH1 0x1 DUP2 PUSH1 0x1 AND ISZERO PUSH2 0x100 MUL SUB AND PUSH1 0x2 SWAP1 DIV DUP1 PUSH1 0x1F ADD PUSH1 0x20 DUP1 SWAP2 DIV MUL PUSH1 0x20 ADD PUSH1 0x40 MLOAD SWAP1 DUP2 ADD PUSH1 0x40 MSTORE DUP1 SWAP3 SWAP2 SWAP1 DUP2 DUP2 MSTORE PUSH1 0x20 ADD DUP3 DUP1 SLOAD PUSH1 0x1 DUP2 PUSH1 0x1 AND ISZERO PUSH2 0x100 MUL SUB AND PUSH1 0x2 SWAP1 DIV DUP1 ISZERO PUSH2 0x19F JUMPI DUP1 PUSH1 0x1F LT PUSH2 0x174 JUMPI PUSH2 0x100 DUP1 DUP4 SLOAD DIV MUL DUP4 MSTORE SWAP2 PUSH1 0x20 ADD SWAP2 PUSH2 0x19F JUMP JUMPDEST DUP3 ADD SWAP2 SWAP1 PUSH1 0x0 MSTORE PUSH1 0x20 PUSH1 0x0 KECCAK256 SWAP1 JUMPDEST DUP2 SLOAD DUP2 MSTORE SWAP1 PUSH1 0x1 ADD SWAP1 PUSH1 0x20 ADD DUP1 DUP4 GT PUSH2 0x182 JUMPI DUP3 SWAP1 SUB PUSH1 0x1F AND DUP3 ADD SWAP2 JUMPDEST POP POP POP POP POP SWAP1 POP SWAP1 JUMP JUMPDEST PUSH1 0x40 MLOAD DUP1 PUSH1 0x60 ADD PUSH1 0x40 MSTORE DUP1 PUSH1 0x40 MLOAD DUP1 PUSH1 0x40 ADD PUSH1 0x40 MSTORE DUP1 PUSH1 0x4 DUP2 MSTORE PUSH1 0x20 ADD PUSH32 0x504F4F5000000000000000000000000000000000000000000000000000000000 DUP2 MSTORE POP DUP2 MSTORE PUSH1 0x20 ADD PUSH1 0x40 MLOAD DUP1 PUSH1 0x40 ADD PUSH1 0x40 MSTORE DUP1 PUSH1 0xA DUP2 MSTORE PUSH1 0x20 ADD PUSH32 0x507974686F6E204F4F5000000000000000000000000000000000000000000000 DUP2 MSTORE POP DUP2 MSTORE PUSH1 0x20 ADD PUSH1 0x23 PUSH1 0xFF AND DUP2 MSTORE POP PUSH1 0x0 DUP1 DUP3 ADD MLOAD DUP2 PUSH1 0x0 ADD SWAP1 DUP1 MLOAD SWAP1 PUSH1 0x20 ADD SWAP1 PUSH2 0x24F SWAP3 SWAP2 SWAP1 PUSH2 0x61C JUMP JUMPDEST POP PUSH1 0x20 DUP3 ADD MLOAD DUP2 PUSH1 0x1 ADD SWAP1 DUP1 MLOAD SWAP1 PUSH1 0x20 ADD SWAP1 PUSH2 0x26C SWAP3 SWAP2 SWAP1 PUSH2 0x61C JUMP JUMPDEST POP PUSH1 0x40 DUP3 ADD MLOAD DUP2 PUSH1 0x2 ADD PUSH1 0x0 PUSH2 0x100 EXP DUP2 SLOAD DUP2 PUSH1 0xFF MUL NOT AND SWAP1 DUP4 PUSH1 0xFF AND MUL OR SWAP1 SSTORE POP SWAP1 POP POP JUMP JUMPDEST DUP1 PUSH1 0x0 DUP1 DUP3 ADD MLOAD DUP2 PUSH1 0x0 ADD SWAP1 DUP1 MLOAD SWAP1 PUSH1 0x20 ADD SWAP1 PUSH2 0x2B1 SWAP3 SWAP2 SWAP1 PUSH2 0x61C JUMP JUMPDEST POP PUSH1 0x20 DUP3 ADD MLOAD DUP2 PUSH1 0x1 ADD SWAP1 DUP1 MLOAD SWAP1 PUSH1 0x20 ADD SWAP1 PUSH2 0x2CE SWAP3 SWAP2 SWAP1 PUSH2 0x61C JUMP JUMPDEST POP PUSH1 0x40 DUP3 ADD MLOAD DUP2 PUSH1 0x2 ADD PUSH1 0x0 PUSH2 0x100 EXP DUP2 SLOAD DUP2 PUSH1 0xFF MUL NOT AND SWAP1 DUP4 PUSH1 0xFF AND MUL OR SWAP1 SSTORE POP SWAP1 POP POP POP JUMP JUMPDEST PUSH2 0x2FE PUSH2 0x6AA JUMP JUMPDEST PUSH1 0x0 PUSH1 0x40 MLOAD DUP1 PUSH1 0x60 ADD PUSH1 0x40 MSTORE SWAP1 DUP2 PUSH1 0x0 DUP3 ADD DUP1 SLOAD PUSH1 0x1 DUP2 PUSH1 0x1 AND ISZERO PUSH2 0x100 MUL SUB AND PUSH1 0x2 SWAP1 DIV DUP1 PUSH1 0x1F ADD PUSH1 0x20 DUP1 SWAP2 DIV MUL PUSH1 0x20 ADD PUSH1 0x40 MLOAD SWAP1 DUP2 ADD PUSH1 0x40 MSTORE DUP1 SWAP3 SWAP2 SWAP1 DUP2 DUP2 MSTORE PUSH1 0x20 ADD DUP3 DUP1 SLOAD PUSH1 0x1 DUP2 PUSH1 0x1 AND ISZERO PUSH2 0x100 MUL SUB AND PUSH1 0x2 SWAP1 DIV DUP1 ISZERO PUSH2 0x3A4 JUMPI DUP1 PUSH1 0x1F LT PUSH2 0x379 JUMPI PUSH2 0x100 DUP1 DUP4 SLOAD DIV MUL DUP4 MSTORE SWAP2 PUSH1 0x20 ADD SWAP2 PUSH2 0x3A4 JUMP JUMPDEST DUP3 ADD SWAP2 SWAP1 PUSH1 0x0 MSTORE PUSH1 0x20 PUSH1 0x0 KECCAK256 SWAP1 JUMPDEST DUP2 SLOAD DUP2 MSTORE SWAP1 PUSH1 0x1 ADD SWAP1 PUSH1 0x20 ADD DUP1 DUP4 GT PUSH2 0x387 JUMPI DUP3 SWAP1 SUB PUSH1 0x1F AND DUP3 ADD SWAP2 JUMPDEST POP POP POP POP POP DUP2 MSTORE PUSH1 0x20 ADD PUSH1 0x1 DUP3 ADD DUP1 SLOAD PUSH1 0x1 DUP2 PUSH1 0x1 AND ISZERO PUSH2 0x100 MUL SUB AND PUSH1 0x2 SWAP1 DIV DUP1 PUSH1 0x1F ADD PUSH1 0x20 DUP1 SWAP2 DIV MUL PUSH1 0x20 ADD PUSH1 0x40 MLOAD SWAP1 DUP2 ADD PUSH1 0x40 MSTORE DUP1 SWAP3 SWAP2 SWAP1 DUP2 DUP2 MSTORE PUSH1 0x20 ADD DUP3 DUP1 SLOAD PUSH1 0x1 DUP2 PUSH1 0x1 AND ISZERO PUSH2 0x100 MUL SUB AND PUSH1 0x2 SWAP1 DIV DUP1 ISZERO PUSH2 0x446 JUMPI DUP1 PUSH1 0x1F LT PUSH2 0x41B JUMPI PUSH2 0x100 DUP1 DUP4 SLOAD DIV MUL DUP4 MSTORE SWAP2 PUSH1 0x20 ADD SWAP2 PUSH2 0x446 JUMP JUMPDEST DUP3 ADD SWAP2 SWAP1 PUSH1 0x0 MSTORE PUSH1 0x20 PUSH1 0x0 KECCAK256 SWAP1 JUMPDEST DUP2 SLOAD DUP2 MSTORE SWAP1 PUSH1 0x1 ADD SWAP1 PUSH1 0x20 ADD DUP1 DUP4 GT PUSH2 0x429 JUMPI DUP3 SWAP1 SUB PUSH1 0x1F AND DUP3 ADD SWAP2 JUMPDEST POP POP POP POP POP DUP2 MSTORE PUSH1 0x20 ADD PUSH1 0x2 DUP3 ADD PUSH1 0x0 SWAP1 SLOAD SWAP1 PUSH2 0x100 EXP SWAP1 DIV PUSH1 0xFF AND PUSH1 0xFF AND PUSH1 0xFF AND DUP2 MSTORE POP POP SWAP1 POP SWAP1 JUMP JUMPDEST PUSH1 0x0 DUP1 PUSH1 0x0 ADD DUP1 SLOAD PUSH1 0x1 DUP2 PUSH1 0x1 AND ISZERO PUSH2 0x100 MUL SUB AND PUSH1 0x2 SWAP1 DIV DUP1 PUSH1 0x1F ADD PUSH1 0x20 DUP1 SWAP2 DIV MUL PUSH1 0x20 ADD PUSH1 0x40 MLOAD SWAP1 DUP2 ADD PUSH1 0x40 MSTORE DUP1 SWAP3 SWAP2 SWAP1 DUP2 DUP2 MSTORE PUSH1 0x20 ADD DUP3 DUP1 SLOAD PUSH1 0x1 DUP2 PUSH1 0x1 AND ISZERO PUSH2 0x100 MUL SUB AND PUSH1 0x2 SWAP1 DIV DUP1 ISZERO PUSH2 0x50B JUMPI DUP1 PUSH1 0x1F LT PUSH2 0x4E0 JUMPI PUSH2 0x100 DUP1 DUP4 SLOAD DIV MUL DUP4 MSTORE SWAP2 PUSH1 0x20 ADD SWAP2 PUSH2 0x50B JUMP JUMPDEST DUP3 ADD SWAP2 SWAP1 PUSH1 0x0 MSTORE PUSH1 0x20 PUSH1 0x0 KECCAK256 SWAP1 JUMPDEST DUP2 SLOAD DUP2 MSTORE SWAP1 PUSH1 0x1 ADD SWAP1 PUSH1 0x20 ADD DUP1 DUP4 GT PUSH2 0x4EE JUMPI DUP3 SWAP1 SUB PUSH1 0x1F AND DUP3 ADD SWAP2 JUMPDEST POP POP POP POP POP SWAP1 DUP1 PUSH1 0x1 ADD DUP1 SLOAD PUSH1 0x1 DUP2 PUSH1 0x1 AND ISZERO PUSH2 0x100 MUL SUB AND PUSH1 0x2 SWAP1 DIV DUP1 PUSH1 0x1F ADD PUSH1 0x20 DUP1 SWAP2 DIV MUL PUSH1 0x20 ADD PUSH1 0x40 MLOAD SWAP1 DUP2 ADD PUSH1 0x40 MSTORE DUP1 SWAP3 SWAP2 SWAP1 DUP2 DUP2 MSTORE PUSH1 0x20 ADD DUP3 DUP1 SLOAD PUSH1 0x1 DUP2 PUSH1 0x1 AND ISZERO PUSH2 0x100 MUL SUB AND PUSH1 0x2 SWAP1 DIV DUP1 ISZERO PUSH2 0x5A9 JUMPI DUP1 PUSH1 0x1F LT PUSH2 0x57E JUMPI PUSH2 0x100 DUP1 DUP4 SLOAD DIV MUL DUP4 MSTORE SWAP2 PUSH1 0x20 ADD SWAP2 PUSH2 0x5A9 JUMP JUMPDEST DUP3 ADD SWAP2 SWAP1 PUSH1 0x0 MSTORE PUSH1 0x20 PUSH1 0x0 KECCAK256 SWAP1 JUMPDEST DUP2 SLOAD DUP2 MSTORE SWAP1 PUSH1 0x1 ADD SWAP1 PUSH1 0x20 ADD DUP1 DUP4 GT PUSH2 0x58C JUMPI DUP3 SWAP1 SUB PUSH1 0x1F AND DUP3 ADD SWAP2 JUMPDEST POP POP POP POP POP SWAP1 DUP1 PUSH1 0x2 ADD PUSH1 0x0 SWAP1 SLOAD SWAP1 PUSH2 0x100 EXP SWAP1 DIV PUSH1 0xFF AND SWAP1 POP DUP4 JUMP JUMPDEST DUP3 PUSH1 0x0 DUP1 ADD SWAP1 DUP1 MLOAD SWAP1 PUSH1 0x20 ADD SWAP1 PUSH2 0x5DE SWAP3 SWAP2 SWAP1 PUSH2 0x61C JUMP JUMPDEST POP DUP2 PUSH1 0x0 PUSH1 0x1 ADD SWAP1 DUP1 MLOAD SWAP1 PUSH1 0x20 ADD SWAP1 PUSH2 0x5F8 SWAP3 SWAP2 SWAP1 PUSH2 0x61C JUMP JUMPDEST POP DUP1 PUSH1 0x0 PUSH1 0x2 ADD PUSH1 0x0 PUSH2 0x100 EXP DUP2 SLOAD DUP2 PUSH1 0xFF MUL NOT AND SWAP1 DUP4 PUSH1 0xFF AND MUL OR SWAP1 SSTORE POP POP POP POP JUMP JUMPDEST DUP3 DUP1 SLOAD PUSH1 0x1 DUP2 PUSH1 0x1 AND ISZERO PUSH2 0x100 MUL SUB AND PUSH1 0x2 SWAP1 DIV SWAP1 PUSH1 0x0 MSTORE PUSH1 0x20 PUSH1 0x0 KECCAK256 SWAP1 PUSH1 0x1F ADD PUSH1 0x20 SWAP1 DIV DUP2 ADD SWAP3 DUP3 PUSH2 0x652 JUMPI PUSH1 0x0 DUP6 SSTORE PUSH2 0x699 JUMP JUMPDEST DUP3 PUSH1 0x1F LT PUSH2 0x66B JUMPI DUP1 MLOAD PUSH1 0xFF NOT AND DUP4 DUP1 ADD OR DUP6 SSTORE PUSH2 0x699 JUMP JUMPDEST DUP3 DUP1 ADD PUSH1 0x1 ADD DUP6 SSTORE DUP3 ISZERO PUSH2 0x699 JUMPI SWAP2 DUP3 ADD JUMPDEST DUP3 DUP2 GT ISZERO PUSH2 0x698 JUMPI DUP3 MLOAD DUP3 SSTORE SWAP2 PUSH1 0x20 ADD SWAP2 SWAP1 PUSH1 0x1 ADD SWAP1 PUSH2 0x67D JUMP JUMPDEST JUMPDEST POP SWAP1 POP PUSH2 0x6A6 SWAP2 SWAP1 PUSH2 0x6CE JUMP JUMPDEST POP SWAP1 JUMP JUMPDEST PUSH1 0x40 MLOAD DUP1 PUSH1 0x60 ADD PUSH1 0x40 MSTORE DUP1 PUSH1 0x60 DUP2 MSTORE PUSH1 0x20 ADD PUSH1 0x60 DUP2 MSTORE PUSH1 0x20 ADD PUSH1 0x0 PUSH1 0xFF AND DUP2 MSTORE POP SWAP1 JUMP JUMPDEST JUMPDEST DUP1 DUP3 GT ISZERO PUSH2 0x6E7 JUMPI PUSH1 0x0 DUP2 PUSH1 0x0 SWAP1 SSTORE POP PUSH1 0x1 ADD PUSH2 0x6CF JUMP JUMPDEST POP SWAP1 JUMP JUMPDEST PUSH1 0x0 PUSH2 0x6FE PUSH2 0x6F9 DUP5 PUSH2 0xA59 JUMP JUMPDEST PUSH2 0xA28 JUMP JUMPDEST SWAP1 POP DUP3 DUP2 MSTORE PUSH1 0x20 DUP2 ADD DUP5 DUP5 DUP5 ADD GT ISZERO PUSH2 0x716 JUMPI PUSH1 0x0 DUP1 REVERT JUMPDEST PUSH2 0x721 DUP5 DUP3 DUP6 PUSH2 0xAC3 JUMP JUMPDEST POP SWAP4 SWAP3 POP POP POP JUMP JUMPDEST PUSH1 0x0 DUP3 PUSH1 0x1F DUP4 ADD SLT PUSH2 0x73A JUMPI PUSH1 0x0 DUP1 REVERT JUMPDEST DUP2 CALLDATALOAD PUSH2 0x74A DUP5 DUP3 PUSH1 0x20 DUP7 ADD PUSH2 0x6EB JUMP JUMPDEST SWAP2 POP POP SWAP3 SWAP2 POP POP JUMP JUMPDEST PUSH1 0x0 PUSH1 0x60 DUP3 DUP5 SUB SLT ISZERO PUSH2 0x765 JUMPI PUSH1 0x0 DUP1 REVERT JUMPDEST PUSH2 0x76F PUSH1 0x60 PUSH2 0xA28 JUMP JUMPDEST SWAP1 POP PUSH1 0x0 DUP3 ADD CALLDATALOAD PUSH8 0xFFFFFFFFFFFFFFFF DUP2 GT ISZERO PUSH2 0x78B JUMPI PUSH1 0x0 DUP1 REVERT JUMPDEST PUSH2 0x797 DUP5 DUP3 DUP6 ADD PUSH2 0x729 JUMP JUMPDEST PUSH1 0x0 DUP4 ADD MSTORE POP PUSH1 0x20 DUP3 ADD CALLDATALOAD PUSH8 0xFFFFFFFFFFFFFFFF DUP2 GT ISZERO PUSH2 0x7B7 JUMPI PUSH1 0x0 DUP1 REVERT JUMPDEST PUSH2 0x7C3 DUP5 DUP3 DUP6 ADD PUSH2 0x729 JUMP JUMPDEST PUSH1 0x20 DUP4 ADD MSTORE POP PUSH1 0x40 PUSH2 0x7D7 DUP5 DUP3 DUP6 ADD PUSH2 0x7E3 JUMP JUMPDEST PUSH1 0x40 DUP4 ADD MSTORE POP SWAP3 SWAP2 POP POP JUMP JUMPDEST PUSH1 0x0 DUP2 CALLDATALOAD SWAP1 POP PUSH2 0x7F2 DUP2 PUSH2 0xB18 JUMP JUMPDEST SWAP3 SWAP2 POP POP JUMP JUMPDEST PUSH1 0x0 DUP1 PUSH1 0x0 PUSH1 0x60 DUP5 DUP7 SUB SLT ISZERO PUSH2 0x80D JUMPI PUSH1 0x0 DUP1 REVERT JUMPDEST PUSH1 0x0 DUP5 ADD CALLDATALOAD PUSH8 0xFFFFFFFFFFFFFFFF DUP2 GT ISZERO PUSH2 0x827 JUMPI PUSH1 0x0 DUP1 REVERT JUMPDEST PUSH2 0x833 DUP7 DUP3 DUP8 ADD PUSH2 0x729 JUMP JUMPDEST SWAP4 POP POP PUSH1 0x20 DUP5 ADD CALLDATALOAD PUSH8 0xFFFFFFFFFFFFFFFF DUP2 GT ISZERO PUSH2 0x850 JUMPI PUSH1 0x0 DUP1 REVERT JUMPDEST PUSH2 0x85C DUP7 DUP3 DUP8 ADD PUSH2 0x729 JUMP JUMPDEST SWAP3 POP POP PUSH1 0x40 PUSH2 0x86D DUP7 DUP3 DUP8 ADD PUSH2 0x7E3 JUMP JUMPDEST SWAP2 POP POP SWAP3 POP SWAP3 POP SWAP3 JUMP JUMPDEST PUSH1 0x0 PUSH1 0x20 DUP3 DUP5 SUB SLT ISZERO PUSH2 0x889 JUMPI PUSH1 0x0 DUP1 REVERT JUMPDEST PUSH1 0x0 DUP3 ADD CALLDATALOAD PUSH8 0xFFFFFFFFFFFFFFFF DUP2 GT ISZERO PUSH2 0x8A3 JUMPI PUSH1 0x0 DUP1 REVERT JUMPDEST PUSH2 0x8AF DUP5 DUP3 DUP6 ADD PUSH2 0x753 JUMP JUMPDEST SWAP2 POP POP SWAP3 SWAP2 POP POP JUMP JUMPDEST PUSH1 0x0 PUSH2 0x8C3 DUP3 PUSH2 0xA89 JUMP JUMPDEST PUSH2 0x8CD DUP2 DUP6 PUSH2 0xA94 JUMP JUMPDEST SWAP4 POP PUSH2 0x8DD DUP2 DUP6 PUSH1 0x20 DUP7 ADD PUSH2 0xAD2 JUMP JUMPDEST PUSH2 0x8E6 DUP2 PUSH2 0xB07 JUMP JUMPDEST DUP5 ADD SWAP2 POP POP SWAP3 SWAP2 POP POP JUMP JUMPDEST PUSH1 0x0 PUSH2 0x8FC DUP3 PUSH2 0xA89 JUMP JUMPDEST PUSH2 0x906 DUP2 DUP6 PUSH2 0xAA5 JUMP JUMPDEST SWAP4 POP PUSH2 0x916 DUP2 DUP6 PUSH1 0x20 DUP7 ADD PUSH2 0xAD2 JUMP JUMPDEST PUSH2 0x91F DUP2 PUSH2 0xB07 JUMP JUMPDEST DUP5 ADD SWAP2 POP POP SWAP3 SWAP2 POP POP JUMP JUMPDEST PUSH1 0x0 PUSH1 0x60 DUP4 ADD PUSH1 0x0 DUP4 ADD MLOAD DUP5 DUP3 SUB PUSH1 0x0 DUP7 ADD MSTORE PUSH2 0x947 DUP3 DUP3 PUSH2 0x8B8 JUMP JUMPDEST SWAP2 POP POP PUSH1 0x20 DUP4 ADD MLOAD DUP5 DUP3 SUB PUSH1 0x20 DUP7 ADD MSTORE PUSH2 0x961 DUP3 DUP3 PUSH2 0x8B8 JUMP JUMPDEST SWAP2 POP POP PUSH1 0x40 DUP4 ADD MLOAD PUSH2 0x976 PUSH1 0x40 DUP7 ADD DUP3 PUSH2 0x981 JUMP JUMPDEST POP DUP1 SWAP2 POP POP SWAP3 SWAP2 POP POP JUMP JUMPDEST PUSH2 0x98A DUP2 PUSH2 0xAB6 JUMP JUMPDEST DUP3 MSTORE POP POP JUMP JUMPDEST PUSH2 0x999 DUP2 PUSH2 0xAB6 JUMP JUMPDEST DUP3 MSTORE POP POP JUMP JUMPDEST PUSH1 0x0 PUSH1 0x20 DUP3 ADD SWAP1 POP DUP2 DUP2 SUB PUSH1 0x0 DUP4 ADD MSTORE PUSH2 0x9B9 DUP2 DUP5 PUSH2 0x8F1 JUMP JUMPDEST SWAP1 POP SWAP3 SWAP2 POP POP JUMP JUMPDEST PUSH1 0x0 PUSH1 0x60 DUP3 ADD SWAP1 POP DUP2 DUP2 SUB PUSH1 0x0 DUP4 ADD MSTORE PUSH2 0x9DB DUP2 DUP7 PUSH2 0x8F1 JUMP JUMPDEST SWAP1 POP DUP2 DUP2 SUB PUSH1 0x20 DUP4 ADD MSTORE PUSH2 0x9EF DUP2 DUP6 PUSH2 0x8F1 JUMP JUMPDEST SWAP1 POP PUSH2 0x9FE PUSH1 0x40 DUP4 ADD DUP5 PUSH2 0x990 JUMP JUMPDEST SWAP5 SWAP4 POP POP POP POP JUMP JUMPDEST PUSH1 0x0 PUSH1 0x20 DUP3 ADD SWAP1 POP DUP2 DUP2 SUB PUSH1 0x0 DUP4 ADD MSTORE PUSH2 0xA20 DUP2 DUP5 PUSH2 0x92A JUMP JUMPDEST SWAP1 POP SWAP3 SWAP2 POP POP JUMP JUMPDEST PUSH1 0x0 PUSH1 0x40 MLOAD SWAP1 POP DUP2 DUP2 ADD DUP2 DUP2 LT PUSH8 0xFFFFFFFFFFFFFFFF DUP3 GT OR ISZERO PUSH2 0xA4F JUMPI PUSH2 0xA4E PUSH2 0xB05 JUMP JUMPDEST JUMPDEST DUP1 PUSH1 0x40 MSTORE POP SWAP2 SWAP1 POP JUMP JUMPDEST PUSH1 0x0 PUSH8 0xFFFFFFFFFFFFFFFF DUP3 GT ISZERO PUSH2 0xA74 JUMPI PUSH2 0xA73 PUSH2 0xB05 JUMP JUMPDEST JUMPDEST PUSH1 0x1F NOT PUSH1 0x1F DUP4 ADD AND SWAP1 POP PUSH1 0x20 DUP2 ADD SWAP1 POP SWAP2 SWAP1 POP JUMP JUMPDEST PUSH1 0x0 DUP2 MLOAD SWAP1 POP SWAP2 SWAP1 POP JUMP JUMPDEST PUSH1 0x0 DUP3 DUP3 MSTORE PUSH1 0x20 DUP3 ADD SWAP1 POP SWAP3 SWAP2 POP POP JUMP JUMPDEST PUSH1 0x0 DUP3 DUP3 MSTORE PUSH1 0x20 DUP3 ADD SWAP1 POP SWAP3 SWAP2 POP POP JUMP JUMPDEST PUSH1 0x0 PUSH1 0xFF DUP3 AND SWAP1 POP SWAP2 SWAP1 POP JUMP JUMPDEST DUP3 DUP2 DUP4 CALLDATACOPY PUSH1 0x0 DUP4 DUP4 ADD MSTORE POP POP POP JUMP JUMPDEST PUSH1 0x0 JUMPDEST DUP4 DUP2 LT ISZERO PUSH2 0xAF0 JUMPI DUP1 DUP3 ADD MLOAD DUP2 DUP5 ADD MSTORE PUSH1 0x20 DUP2 ADD SWAP1 POP PUSH2 0xAD5 JUMP JUMPDEST DUP4 DUP2 GT ISZERO PUSH2 0xAFF JUMPI PUSH1 0x0 DUP5 DUP5 ADD MSTORE JUMPDEST POP POP POP POP JUMP JUMPDEST INVALID JUMPDEST PUSH1 0x0 PUSH1 0x1F NOT PUSH1 0x1F DUP4 ADD AND SWAP1 POP SWAP2 SWAP1 POP JUMP JUMPDEST PUSH2 0xB21 DUP2 PUSH2 0xAB6 JUMP JUMPDEST DUP2 EQ PUSH2 0xB2C JUMPI PUSH1 0x0 DUP1 REVERT JUMPDEST POP JUMP INVALID LOG2 PUSH5 0x6970667358 0x22 SLT KECCAK256 0xF9 XOR PUSH21 0x7FA306217F999CAB475C4F5FD2CD5790AEB59FBBE1 BALANCE 0xE8 0xD2 PUSH25 0xA8AA7EFF64736F6C6343000706003300000000000000000000 "
				},
				"gasEstimates": {
					"creation": {
						"codeDepositCost": "583400",
						"executionCost": "619",
						"totalCost": "584019"
					},
					"external": {
						"currentCourse()": "infinite",
						"getCourse()": "infinite",
						"getCourseId()": "infinite",
						"setCurrentCourse()": "infinite",
						"setCurrentCourse2((string,string,uint8))": "infinite",
						"setCurrentCourse3(string,string,uint8)": "infinite"
					}
				},
				"methodIdentifiers": {
					"currentCourse()": "97df9d3f",
					"getCourse()": "8c14acd5",
					"getCourseId()": "50808e8b",
					"setCurrentCourse()": "71cdd53c",
					"setCurrentCourse2((string,string,uint8))": "89ab0958",
					"setCurrentCourse3(string,string,uint8)": "a9f921ab"
				}
			},
			"storageLayout": {
				"storage": [
					{
						"astId": 11,
						"contract": "contracts/8_Demo5.sol:Demo5",
						"label": "currentCourse",
						"offset": 0,
						"slot": "0",
						"type": "t_struct(Course)9_storage"
					}
				],
				"types": {
					"t_string_storage": {
						"encoding": "bytes",
						"label": "string",
						"numberOfBytes": "32"
					},
					"t_struct(Course)9_storage": {
						"encoding": "inplace",
						"label": "struct Demo5.Course",
						"members": [
							{
								"astId": 4,
								"contract": "contracts/8_Demo5.sol:Demo5",
								"label": "id",
								"offset": 0,
								"slot": "0",
								"type": "t_string_storage"
							},
							{
								"astId": 6,
								"contract": "contracts/8_Demo5.sol:Demo5",
								"label": "name",
								"offset": 0,
								"slot": "1",
								"type": "t_string_storage"
							},
							{
								"astId": 8,
								"contract": "contracts/8_Demo5.sol:Demo5",
								"label": "duration",
								"offset": 0,
								"slot": "2",
								"type": "t_uint8"
							}
						],
						"numberOfBytes": "96"
					},
					"t_uint8": {
						"encoding": "inplace",
						"label": "uint8",
						"numberOfBytes": "1"
					}
				}
			},
			"userdoc": {
				"kind": "user",
				"methods": {},
				"version": 1
			}
		}
	}
}