{
	"contracts/10_Demo7.sol": {
		"Demo7": {
			"abi": [
				{
					"inputs": [],
					"name": "getMultiple1",
					"outputs": [
						{
							"internalType": "uint256",
							"name": "",
							"type": "uint256"
						},
						{
							"internalType": "uint256",
							"name": "",
							"type": "uint256"
						}
					],
					"stateMutability": "pure",
					"type": "function"
				},
				{
					"inputs": [],
					"name": "getMultiple2",
					"outputs": [
						{
							"internalType": "uint256",
							"name": "product",
							"type": "uint256"
						},
						{
							"internalType": "uint256",
							"name": "sum",
							"type": "uint256"
						}
					],
					"stateMutability": "pure",
					"type": "function"
				},
				{
					"inputs": [],
					"name": "getMultiple3",
					"outputs": [
						{
							"internalType": "uint256",
							"name": "product",
							"type": "uint256"
						},
						{
							"internalType": "uint256",
							"name": "sum",
							"type": "uint256"
						}
					],
					"stateMutability": "pure",
					"type": "function"
				}
			],
			"devdoc": {
				"kind": "dev",
				"methods": {},
				"version": 1
			},
			"evm": {
				"assembly": "    /* \"contracts/10_Demo7.sol\":60:698  contract Demo7 {... */\n  mstore(0x40, 0x80)\n  callvalue\n  dup1\n  iszero\n  tag_1\n  jumpi\n  0x00\n  dup1\n  revert\ntag_1:\n  pop\n  dataSize(sub_0)\n  dup1\n  dataOffset(sub_0)\n  0x00\n  codecopy\n  0x00\n  return\nstop\n\nsub_0: assembly {\n        /* \"contracts/10_Demo7.sol\":60:698  contract Demo7 {... */\n      mstore(0x40, 0x80)\n      callvalue\n      dup1\n      iszero\n      tag_1\n      jumpi\n      0x00\n      dup1\n      revert\n    tag_1:\n      pop\n      jumpi(tag_2, lt(calldatasize, 0x04))\n      shr(0xe0, calldataload(0x00))\n      dup1\n      0x27855e17\n      eq\n      tag_3\n      jumpi\n      dup1\n      0x468e67f4\n      eq\n      tag_4\n      jumpi\n      dup1\n      0xef0873d8\n      eq\n      tag_5\n      jumpi\n    tag_2:\n      0x00\n      dup1\n      revert\n        /* \"contracts/10_Demo7.sol\":437:696  function getMultiple3() public pure returns (uint256 product, uint256 sum) {... */\n    tag_3:\n      tag_6\n      tag_7\n      jump\t// in\n    tag_6:\n      mload(0x40)\n      dup1\n      dup4\n      dup2\n      mstore\n      0x20\n      add\n      dup3\n      dup2\n      mstore\n      0x20\n      add\n      swap3\n      pop\n      pop\n      pop\n      mload(0x40)\n      dup1\n      swap2\n      sub\n      swap1\n      return\n        /* \"contracts/10_Demo7.sol\":81:237  function getMultiple1() public pure returns (uint256, uint256) {... */\n    tag_4:\n      tag_8\n      tag_9\n      jump\t// in\n    tag_8:\n      mload(0x40)\n      dup1\n      dup4\n      dup2\n      mstore\n      0x20\n      add\n      dup3\n      dup2\n      mstore\n      0x20\n      add\n      swap3\n      pop\n      pop\n      pop\n      mload(0x40)\n      dup1\n      swap2\n      sub\n      swap1\n      return\n        /* \"contracts/10_Demo7.sol\":243:431  function getMultiple2() public pure returns (uint256 product, uint256 sum) {... */\n    tag_5:\n      tag_10\n      tag_11\n      jump\t// in\n    tag_10:\n      mload(0x40)\n      dup1\n      dup4\n      dup2\n      mstore\n      0x20\n      add\n      dup3\n      dup2\n      mstore\n      0x20\n      add\n      swap3\n      pop\n      pop\n      pop\n      mload(0x40)\n      dup1\n      swap2\n      sub\n      swap1\n      return\n        /* \"contracts/10_Demo7.sol\":437:696  function getMultiple3() public pure returns (uint256 product, uint256 sum) {... */\n    tag_7:\n        /* \"contracts/10_Demo7.sol\":482:497  uint256 product */\n      0x00\n        /* \"contracts/10_Demo7.sol\":499:510  uint256 sum */\n      dup1\n        /* \"contracts/10_Demo7.sol\":522:531  uint256 a */\n      0x00\n        /* \"contracts/10_Demo7.sol\":534:535  3 */\n      0x03\n        /* \"contracts/10_Demo7.sol\":522:535  uint256 a = 3 */\n      swap1\n      pop\n        /* \"contracts/10_Demo7.sol\":545:554  uint256 b */\n      0x00\n        /* \"contracts/10_Demo7.sol\":557:558  5 */\n      0x05\n        /* \"contracts/10_Demo7.sol\":545:558  uint256 b = 5 */\n      swap1\n      pop\n        /* \"contracts/10_Demo7.sol\":582:583  b */\n      dup1\n        /* \"contracts/10_Demo7.sol\":578:579  a */\n      dup3\n        /* \"contracts/10_Demo7.sol\":578:583  a + b */\n      add\n        /* \"contracts/10_Demo7.sol\":568:583  product = a + b */\n      swap4\n      pop\n        /* \"contracts/10_Demo7.sol\":603:604  b */\n      dup1\n        /* \"contracts/10_Demo7.sol\":599:600  a */\n      dup3\n        /* \"contracts/10_Demo7.sol\":599:604  a * b */\n      mul\n        /* \"contracts/10_Demo7.sol\":593:604  sum = a * b */\n      swap3\n      pop\n        /* \"contracts/10_Demo7.sol\":437:696  function getMultiple3() public pure returns (uint256 product, uint256 sum) {... */\n      pop\n      pop\n      swap1\n      swap2\n      jump\t// out\n        /* \"contracts/10_Demo7.sol\":81:237  function getMultiple1() public pure returns (uint256, uint256) {... */\n    tag_9:\n        /* \"contracts/10_Demo7.sol\":126:133  uint256 */\n      0x00\n        /* \"contracts/10_Demo7.sol\":135:142  uint256 */\n      dup1\n        /* \"contracts/10_Demo7.sol\":154:163  uint256 a */\n      0x00\n        /* \"contracts/10_Demo7.sol\":166:167  3 */\n      0x03\n        /* \"contracts/10_Demo7.sol\":154:167  uint256 a = 3 */\n      swap1\n      pop\n        /* \"contracts/10_Demo7.sol\":177:186  uint256 b */\n      0x00\n        /* \"contracts/10_Demo7.sol\":189:190  5 */\n      0x05\n        /* \"contracts/10_Demo7.sol\":177:190  uint256 b = 5 */\n      swap1\n      pop\n        /* \"contracts/10_Demo7.sol\":212:213  b */\n      dup1\n        /* \"contracts/10_Demo7.sol\":208:209  a */\n      dup3\n        /* \"contracts/10_Demo7.sol\":208:213  a + b */\n      add\n        /* \"contracts/10_Demo7.sol\":219:220  b */\n      dup2\n        /* \"contracts/10_Demo7.sol\":215:216  a */\n      dup4\n        /* \"contracts/10_Demo7.sol\":215:220  a * b */\n      mul\n        /* \"contracts/10_Demo7.sol\":200:221  return (a + b, a * b) */\n      swap4\n      pop\n      swap4\n      pop\n      pop\n      pop\n        /* \"contracts/10_Demo7.sol\":81:237  function getMultiple1() public pure returns (uint256, uint256) {... */\n      swap1\n      swap2\n      jump\t// out\n        /* \"contracts/10_Demo7.sol\":243:431  function getMultiple2() public pure returns (uint256 product, uint256 sum) {... */\n    tag_11:\n        /* \"contracts/10_Demo7.sol\":288:303  uint256 product */\n      0x00\n        /* \"contracts/10_Demo7.sol\":305:316  uint256 sum */\n      dup1\n        /* \"contracts/10_Demo7.sol\":328:337  uint256 a */\n      0x00\n        /* \"contracts/10_Demo7.sol\":340:341  3 */\n      0x03\n        /* \"contracts/10_Demo7.sol\":328:341  uint256 a = 3 */\n      swap1\n      pop\n        /* \"contracts/10_Demo7.sol\":351:360  uint256 b */\n      0x00\n        /* \"contracts/10_Demo7.sol\":363:364  5 */\n      0x05\n        /* \"contracts/10_Demo7.sol\":351:364  uint256 b = 5 */\n      swap1\n      pop\n        /* \"contracts/10_Demo7.sol\":386:387  b */\n      dup1\n        /* \"contracts/10_Demo7.sol\":382:383  a */\n      dup3\n        /* \"contracts/10_Demo7.sol\":382:387  a + b */\n      add\n        /* \"contracts/10_Demo7.sol\":393:394  b */\n      dup2\n        /* \"contracts/10_Demo7.sol\":389:390  a */\n      dup4\n        /* \"contracts/10_Demo7.sol\":389:394  a * b */\n      mul\n        /* \"contracts/10_Demo7.sol\":374:395  return (a + b, a * b) */\n      swap4\n      pop\n      swap4\n      pop\n      pop\n      pop\n        /* \"contracts/10_Demo7.sol\":243:431  function getMultiple2() public pure returns (uint256 product, uint256 sum) {... */\n      swap1\n      swap2\n      jump\t// out\n\n    auxdata: 0xa26469706673582212203e75aecf49dfbf26c12a632c4ec26da57dd3d9b28a5490de6be66dcc1594c1ea64736f6c63430007060033\n}\n",
				"bytecode": {
					"linkReferences": {},
					"object": "608060405234801561001057600080fd5b50610148806100206000396000f3fe608060405234801561001057600080fd5b50600436106100415760003560e01c806327855e1714610046578063468e67f41461006b578063ef0873d814610090575b600080fd5b61004e6100b5565b604051808381526020018281526020019250505060405180910390f35b6100736100d4565b604051808381526020018281526020019250505060405180910390f35b6100986100f3565b604051808381526020018281526020019250505060405180910390f35b6000806000600390506000600590508082019350808202925050509091565b6000806000600390506000600590508082018183029350935050509091565b600080600060039050600060059050808201818302935093505050909156fea26469706673582212203e75aecf49dfbf26c12a632c4ec26da57dd3d9b28a5490de6be66dcc1594c1ea64736f6c63430007060033",
					"opcodes": "PUSH1 0x80 PUSH1 0x40 MSTORE CALLVALUE DUP1 ISZERO PUSH2 0x10 JUMPI PUSH1 0x0 DUP1 REVERT JUMPDEST POP PUSH2 0x148 DUP1 PUSH2 0x20 PUSH1 0x0 CODECOPY PUSH1 0x0 RETURN INVALID PUSH1 0x80 PUSH1 0x40 MSTORE CALLVALUE DUP1 ISZERO PUSH2 0x10 JUMPI PUSH1 0x0 DUP1 REVERT JUMPDEST POP PUSH1 0x4 CALLDATASIZE LT PUSH2 0x41 JUMPI PUSH1 0x0 CALLDATALOAD PUSH1 0xE0 SHR DUP1 PUSH4 0x27855E17 EQ PUSH2 0x46 JUMPI DUP1 PUSH4 0x468E67F4 EQ PUSH2 0x6B JUMPI DUP1 PUSH4 0xEF0873D8 EQ PUSH2 0x90 JUMPI JUMPDEST PUSH1 0x0 DUP1 REVERT JUMPDEST PUSH2 0x4E PUSH2 0xB5 JUMP JUMPDEST PUSH1 0x40 MLOAD DUP1 DUP4 DUP2 MSTORE PUSH1 0x20 ADD DUP3 DUP2 MSTORE PUSH1 0x20 ADD SWAP3 POP POP POP PUSH1 0x40 MLOAD DUP1 SWAP2 SUB SWAP1 RETURN JUMPDEST PUSH2 0x73 PUSH2 0xD4 JUMP JUMPDEST PUSH1 0x40 MLOAD DUP1 DUP4 DUP2 MSTORE PUSH1 0x20 ADD DUP3 DUP2 MSTORE PUSH1 0x20 ADD SWAP3 POP POP POP PUSH1 0x40 MLOAD DUP1 SWAP2 SUB SWAP1 RETURN JUMPDEST PUSH2 0x98 PUSH2 0xF3 JUMP JUMPDEST PUSH1 0x40 MLOAD DUP1 DUP4 DUP2 MSTORE PUSH1 0x20 ADD DUP3 DUP2 MSTORE PUSH1 0x20 ADD SWAP3 POP POP POP PUSH1 0x40 MLOAD DUP1 SWAP2 SUB SWAP1 RETURN JUMPDEST PUSH1 0x0 DUP1 PUSH1 0x0 PUSH1 0x3 SWAP1 POP PUSH1 0x0 PUSH1 0x5 SWAP1 POP DUP1 DUP3 ADD SWAP4 POP DUP1 DUP3 MUL SWAP3 POP POP POP SWAP1 SWAP2 JUMP JUMPDEST PUSH1 0x0 DUP1 PUSH1 0x0 PUSH1 0x3 SWAP1 POP PUSH1 0x0 PUSH1 0x5 SWAP1 POP DUP1 DUP3 ADD DUP2 DUP4 MUL SWAP4 POP SWAP4 POP POP POP SWAP1 SWAP2 JUMP JUMPDEST PUSH1 0x0 DUP1 PUSH1 0x0 PUSH1 0x3 SWAP1 POP PUSH1 0x0 PUSH1 0x5 SWAP1 POP DUP1 DUP3 ADD DUP2 DUP4 MUL SWAP4 POP SWAP4 POP POP POP SWAP1 SWAP2 JUMP INVALID LOG2 PUSH5 0x6970667358 0x22 SLT KECCAK256 RETURNDATACOPY PUSH22 0xAECF49DFBF26C12A632C4EC26DA57DD3D9B28A5490DE PUSH12 0xE66DCC1594C1EA64736F6C63 NUMBER STOP SMOD MOD STOP CALLER "
				},
				"gasEstimates": {
					"creation": {
						"codeDepositCost": "65600",
						"executionCost": "117",
						"totalCost": "65717"
					},
					"external": {
						"getMultiple1()": "287",
						"getMultiple2()": "309",
						"getMultiple3()": "265"
					}
				},
				"methodIdentifiers": {
					"getMultiple1()": "468e67f4",
					"getMultiple2()": "ef0873d8",
					"getMultiple3()": "27855e17"
				}
			},
			"storageLayout": {
				"storage": [],
				"types": null
			},
			"userdoc": {
				"kind": "user",
				"methods": {},
				"version": 1
			}
		}
	}
}