{
	"data": {
		"bytecode": {
			"linkReferences": {},
			"object": "608060405234801561001057600080fd5b5061026d806100206000396000f3fe608060405234801561001057600080fd5b506004361061007d5760003560e01c80633c0e5a4c1161005b5780633c0e5a4c146100d6578063949d225d146100f857806399400a5a14610121578063f0849992146101525761007d565b806312c24d4d146100825780631759f920146100a35780631d8beb3c146100cc575b600080fd5b61008a610170565b604051808260ff16815260200191505060405180910390f35b6100ab610191565b604051808260048111156100bb57fe5b815260200191505060405180910390f35b6100d46101a7565b005b6100de6101cc565b604051808261ffff16815260200191505060405180910390f35b6101006101ed565b6040518082600481111561011057fe5b815260200191505060405180910390f35b6101506004803603602081101561013757600080fd5b81019080803560ff1690602001909291905050506101fe565b005b61015a610223565b6040518082815260200191505060405180910390f35b60008060009054906101000a900460ff16600481111561018c57fe5b905090565b60008060009054906101000a900460ff16905090565b60036000806101000a81548160ff021916908360048111156101c557fe5b0217905550565b60008060009054906101000a900460ff1660048111156101e857fe5b905090565b60008054906101000a900460ff1681565b806000806101000a81548160ff0219169083600481111561021b57fe5b021790555050565b60006001600481111561023257fe5b90509056fea26469706673582212205ea63e59c82cdcd5e99428fba6c8aae0c1965e39479c31b0c45b12f9fbde45b364736f6c63430007060033",
			"opcodes": "PUSH1 0x80 PUSH1 0x40 MSTORE CALLVALUE DUP1 ISZERO PUSH2 0x10 JUMPI PUSH1 0x0 DUP1 REVERT JUMPDEST POP PUSH2 0x26D DUP1 PUSH2 0x20 PUSH1 0x0 CODECOPY PUSH1 0x0 RETURN INVALID PUSH1 0x80 PUSH1 0x40 MSTORE CALLVALUE DUP1 ISZERO PUSH2 0x10 JUMPI PUSH1 0x0 DUP1 REVERT JUMPDEST POP PUSH1 0x4 CALLDATASIZE LT PUSH2 0x7D JUMPI PUSH1 0x0 CALLDATALOAD PUSH1 0xE0 SHR DUP1 PUSH4 0x3C0E5A4C GT PUSH2 0x5B JUMPI DUP1 PUSH4 0x3C0E5A4C EQ PUSH2 0xD6 JUMPI DUP1 PUSH4 0x949D225D EQ PUSH2 0xF8 JUMPI DUP1 PUSH4 0x99400A5A EQ PUSH2 0x121 JUMPI DUP1 PUSH4 0xF0849992 EQ PUSH2 0x152 JUMPI PUSH2 0x7D JUMP JUMPDEST DUP1 PUSH4 0x12C24D4D EQ PUSH2 0x82 JUMPI DUP1 PUSH4 0x1759F920 EQ PUSH2 0xA3 JUMPI DUP1 PUSH4 0x1D8BEB3C EQ PUSH2 0xCC JUMPI JUMPDEST PUSH1 0x0 DUP1 REVERT JUMPDEST PUSH2 0x8A PUSH2 0x170 JUMP JUMPDEST PUSH1 0x40 MLOAD DUP1 DUP3 PUSH1 0xFF AND DUP2 MSTORE PUSH1 0x20 ADD SWAP2 POP POP PUSH1 0x40 MLOAD DUP1 SWAP2 SUB SWAP1 RETURN JUMPDEST PUSH2 0xAB PUSH2 0x191 JUMP JUMPDEST PUSH1 0x40 MLOAD DUP1 DUP3 PUSH1 0x4 DUP2 GT ISZERO PUSH2 0xBB JUMPI INVALID JUMPDEST DUP2 MSTORE PUSH1 0x20 ADD SWAP2 POP POP PUSH1 0x40 MLOAD DUP1 SWAP2 SUB SWAP1 RETURN JUMPDEST PUSH2 0xD4 PUSH2 0x1A7 JUMP JUMPDEST STOP JUMPDEST PUSH2 0xDE PUSH2 0x1CC JUMP JUMPDEST PUSH1 0x40 MLOAD DUP1 DUP3 PUSH2 0xFFFF AND DUP2 MSTORE PUSH1 0x20 ADD SWAP2 POP POP PUSH1 0x40 MLOAD DUP1 SWAP2 SUB SWAP1 RETURN JUMPDEST PUSH2 0x100 PUSH2 0x1ED JUMP JUMPDEST PUSH1 0x40 MLOAD DUP1 DUP3 PUSH1 0x4 DUP2 GT ISZERO PUSH2 0x110 JUMPI INVALID JUMPDEST DUP2 MSTORE PUSH1 0x20 ADD SWAP2 POP POP PUSH1 0x40 MLOAD DUP1 SWAP2 SUB SWAP1 RETURN JUMPDEST PUSH2 0x150 PUSH1 0x4 DUP1 CALLDATASIZE SUB PUSH1 0x20 DUP2 LT ISZERO PUSH2 0x137 JUMPI PUSH1 0x0 DUP1 REVERT JUMPDEST DUP2 ADD SWAP1 DUP1 DUP1 CALLDATALOAD PUSH1 0xFF AND SWAP1 PUSH1 0x20 ADD SWAP1 SWAP3 SWAP2 SWAP1 POP POP POP PUSH2 0x1FE JUMP JUMPDEST STOP JUMPDEST PUSH2 0x15A PUSH2 0x223 JUMP JUMPDEST PUSH1 0x40 MLOAD DUP1 DUP3 DUP2 MSTORE PUSH1 0x20 ADD SWAP2 POP POP PUSH1 0x40 MLOAD DUP1 SWAP2 SUB SWAP1 RETURN JUMPDEST PUSH1 0x0 DUP1 PUSH1 0x0 SWAP1 SLOAD SWAP1 PUSH2 0x100 EXP SWAP1 DIV PUSH1 0xFF AND PUSH1 0x4 DUP2 GT ISZERO PUSH2 0x18C JUMPI INVALID JUMPDEST SWAP1 POP SWAP1 JUMP JUMPDEST PUSH1 0x0 DUP1 PUSH1 0x0 SWAP1 SLOAD SWAP1 PUSH2 0x100 EXP SWAP1 DIV PUSH1 0xFF AND SWAP1 POP SWAP1 JUMP JUMPDEST PUSH1 0x3 PUSH1 0x0 DUP1 PUSH2 0x100 EXP DUP2 SLOAD DUP2 PUSH1 0xFF MUL NOT AND SWAP1 DUP4 PUSH1 0x4 DUP2 GT ISZERO PUSH2 0x1C5 JUMPI INVALID JUMPDEST MUL OR SWAP1 SSTORE POP JUMP JUMPDEST PUSH1 0x0 DUP1 PUSH1 0x0 SWAP1 SLOAD SWAP1 PUSH2 0x100 EXP SWAP1 DIV PUSH1 0xFF AND PUSH1 0x4 DUP2 GT ISZERO PUSH2 0x1E8 JUMPI INVALID JUMPDEST SWAP1 POP SWAP1 JUMP JUMPDEST PUSH1 0x0 DUP1 SLOAD SWAP1 PUSH2 0x100 EXP SWAP1 DIV PUSH1 0xFF AND DUP2 JUMP JUMPDEST DUP1 PUSH1 0x0 DUP1 PUSH2 0x100 EXP DUP2 SLOAD DUP2 PUSH1 0xFF MUL NOT AND SWAP1 DUP4 PUSH1 0x4 DUP2 GT ISZERO PUSH2 0x21B JUMPI INVALID JUMPDEST MUL OR SWAP1 SSTORE POP POP JUMP JUMPDEST PUSH1 0x0 PUSH1 0x1 PUSH1 0x4 DUP2 GT ISZERO PUSH2 0x232 JUMPI INVALID JUMPDEST SWAP1 POP SWAP1 JUMP INVALID LOG2 PUSH5 0x6970667358 0x22 SLT KECCAK256 0x5E 0xA6 RETURNDATACOPY MSIZE 0xC8 0x2C 0xDC 0xD5 0xE9 SWAP5 0x28 0xFB 0xA6 0xC8 0xAA 0xE0 0xC1 SWAP7 0x5E CODECOPY SELFBALANCE SWAP13 BALANCE 0xB0 0xC4 JUMPDEST SLT 0xF9 0xFB 0xDE GASLIMIT 0xB3 PUSH5 0x736F6C6343 STOP SMOD MOD STOP CALLER "
		},
		"gasEstimates": {
			"creation": {
				"codeDepositCost": "124200",
				"executionCost": "171",
				"totalCost": "124371"
			},
			"external": {
				"getCurrentSize()": "1098",
				"getCurrentSize2()": "1082",
				"getCurrentSize3()": "1081",
				"getDefaultSize()": "305",
				"setSize(uint8)": "21165",
				"setVenti()": "21076",
				"size()": "1086"
			}
		},
		"methodIdentifiers": {
			"getCurrentSize()": "1759f920",
			"getCurrentSize2()": "12c24d4d",
			"getCurrentSize3()": "3c0e5a4c",
			"getDefaultSize()": "f0849992",
			"setSize(uint8)": "99400a5a",
			"setVenti()": "1d8beb3c",
			"size()": "949d225d"
		}
	},
	"abi": [
		{
			"inputs": [],
			"name": "getCurrentSize",
			"outputs": [
				{
					"internalType": "enum Demo4.StarbucksSize",
					"name": "",
					"type": "uint8"
				}
			],
			"stateMutability": "view",
			"type": "function"
		},
		{
			"inputs": [],
			"name": "getCurrentSize2",
			"outputs": [
				{
					"internalType": "uint8",
					"name": "",
					"type": "uint8"
				}
			],
			"stateMutability": "view",
			"type": "function"
		},
		{
			"inputs": [],
			"name": "getCurrentSize3",
			"outputs": [
				{
					"internalType": "uint16",
					"name": "",
					"type": "uint16"
				}
			],
			"stateMutability": "view",
			"type": "function"
		},
		{
			"inputs": [],
			"name": "getDefaultSize",
			"outputs": [
				{
					"internalType": "uint256",
					"name": "",
					"type": "uint256"
				}
			],
			"stateMutability": "pure",
			"type": "function"
		},
		{
			"inputs": [
				{
					"internalType": "enum Demo4.StarbucksSize",
					"name": "pSize",
					"type": "uint8"
				}
			],
			"name": "setSize",
			"outputs": [],
			"stateMutability": "nonpayable",
			"type": "function"
		},
		{
			"inputs": [],
			"name": "setVenti",
			"outputs": [],
			"stateMutability": "nonpayable",
			"type": "function"
		},
		{
			"inputs": [],
			"name": "size",
			"outputs": [
				{
					"internalType": "enum Demo4.StarbucksSize",
					"name": "",
					"type": "uint8"
				}
			],
			"stateMutability": "view",
			"type": "function"
		}
	]
}