{
	"data": {
		"bytecode": {
			"linkReferences": {},
			"object": "608060405234801561001057600080fd5b50610148806100206000396000f3fe608060405234801561001057600080fd5b50600436106100415760003560e01c806327855e1714610046578063468e67f41461006b578063ef0873d814610090575b600080fd5b61004e6100b5565b604051808381526020018281526020019250505060405180910390f35b6100736100d4565b604051808381526020018281526020019250505060405180910390f35b6100986100f3565b604051808381526020018281526020019250505060405180910390f35b6000806000600390506000600590508082019350808202925050509091565b6000806000600390506000600590508082018183029350935050509091565b600080600060039050600060059050808201818302935093505050909156fea26469706673582212203e75aecf49dfbf26c12a632c4ec26da57dd3d9b28a5490de6be66dcc1594c1ea64736f6c63430007060033",
			"opcodes": "PUSH1 0x80 PUSH1 0x40 MSTORE CALLVALUE DUP1 ISZERO PUSH2 0x10 JUMPI PUSH1 0x0 DUP1 REVERT JUMPDEST POP PUSH2 0x148 DUP1 PUSH2 0x20 PUSH1 0x0 CODECOPY PUSH1 0x0 RETURN INVALID PUSH1 0x80 PUSH1 0x40 MSTORE CALLVALUE DUP1 ISZERO PUSH2 0x10 JUMPI PUSH1 0x0 DUP1 REVERT JUMPDEST POP PUSH1 0x4 CALLDATASIZE LT PUSH2 0x41 JUMPI PUSH1 0x0 CALLDATALOAD PUSH1 0xE0 SHR DUP1 PUSH4 0x27855E17 EQ PUSH2 0x46 JUMPI DUP1 PUSH4 0x468E67F4 EQ PUSH2 0x6B JUMPI DUP1 PUSH4 0xEF0873D8 EQ PUSH2 0x90 JUMPI JUMPDEST PUSH1 0x0 DUP1 REVERT JUMPDEST PUSH2 0x4E PUSH2 0xB5 JUMP JUMPDEST PUSH1 0x40 MLOAD DUP1 DUP4 DUP2 MSTORE PUSH1 0x20 ADD DUP3 DUP2 MSTORE PUSH1 0x20 ADD SWAP3 POP POP POP PUSH1 0x40 MLOAD DUP1 SWAP2 SUB SWAP1 RETURN JUMPDEST PUSH2 0x73 PUSH2 0xD4 JUMP JUMPDEST PUSH1 0x40 MLOAD DUP1 DUP4 DUP2 MSTORE PUSH1 0x20 ADD DUP3 DUP2 MSTORE PUSH1 0x20 ADD SWAP3 POP POP POP PUSH1 0x40 MLOAD DUP1 SWAP2 SUB SWAP1 RETURN JUMPDEST PUSH2 0x98 PUSH2 0xF3 JUMP JUMPDEST PUSH1 0x40 MLOAD DUP1 DUP4 DUP2 MSTORE PUSH1 0x20 ADD DUP3 DUP2 MSTORE PUSH1 0x20 ADD SWAP3 POP POP POP PUSH1 0x40 MLOAD DUP1 SWAP2 SUB SWAP1 RETURN JUMPDEST PUSH1 0x0 DUP1 PUSH1 0x0 PUSH1 0x3 SWAP1 POP PUSH1 0x0 PUSH1 0x5 SWAP1 POP DUP1 DUP3 ADD SWAP4 POP DUP1 DUP3 MUL SWAP3 POP POP POP SWAP1 SWAP2 JUMP JUMPDEST PUSH1 0x0 DUP1 PUSH1 0x0 PUSH1 0x3 SWAP1 POP PUSH1 0x0 PUSH1 0x5 SWAP1 POP DUP1 DUP3 ADD DUP2 DUP4 MUL SWAP4 POP SWAP4 POP POP POP SWAP1 SWAP2 JUMP JUMPDEST PUSH1 0x0 DUP1 PUSH1 0x0 PUSH1 0x3 SWAP1 POP PUSH1 0x0 PUSH1 0x5 SWAP1 POP DUP1 DUP3 ADD DUP2 DUP4 MUL SWAP4 POP SWAP4 POP POP POP SWAP1 SWAP2 JUMP INVALID LOG2 PUSH5 0x6970667358 0x22 SLT KECCAK256 RETURNDATACOPY PUSH22 0xAECF49DFBF26C12A632C4EC26DA57DD3D9B28A5490DE PUSH12 0xE66DCC1594C1EA64736F6C63 NUMBER STOP SMOD MOD STOP CALLER "
		},
		"gasEstimates": {
			"creation": {
				"codeDepositCost": "65600",
				"executionCost": "117",
				"totalCost": "65717"
			},
			"external": {
				"getMultiple1()": "287",
				"getMultiple2()": "309",
				"getMultiple3()": "265"
			}
		},
		"methodIdentifiers": {
			"getMultiple1()": "468e67f4",
			"getMultiple2()": "ef0873d8",
			"getMultiple3()": "27855e17"
		}
	},
	"abi": [
		{
			"inputs": [],
			"name": "getMultiple1",
			"outputs": [
				{
					"internalType": "uint256",
					"name": "",
					"type": "uint256"
				},
				{
					"internalType": "uint256",
					"name": "",
					"type": "uint256"
				}
			],
			"stateMutability": "pure",
			"type": "function"
		},
		{
			"inputs": [],
			"name": "getMultiple2",
			"outputs": [
				{
					"internalType": "uint256",
					"name": "product",
					"type": "uint256"
				},
				{
					"internalType": "uint256",
					"name": "sum",
					"type": "uint256"
				}
			],
			"stateMutability": "pure",
			"type": "function"
		},
		{
			"inputs": [],
			"name": "getMultiple3",
			"outputs": [
				{
					"internalType": "uint256",
					"name": "product",
					"type": "uint256"
				},
				{
					"internalType": "uint256",
					"name": "sum",
					"type": "uint256"
				}
			],
			"stateMutability": "pure",
			"type": "function"
		}
	]
}